\HA01KHI KMB 0420210205521     0000                                          0000
L1KMB-COM-14AB        AKA  KMB  2021-04-222021-06-01MOL SUCCESS                   SKMB-104021
L2KMB-COM-14AB        KMB-COM-14A                        0000000000
L3KMB-COM-14AB        KMB-COM-14A    KMB-COM-14A007 OTPU6238450         000000006000350003500031
L4KMB-COM-14AB        KMB-COM-14A    KMB-COM-14A007 KMB-COM-14AAAAG27010-1313          00000600000000007710000BRLFOB              0000000333000
L4KMB-COM-14AB        KMB-COM-14A    KMB-COM-14A007 KMB-COM-14AAAAR92070-0014          00000800000000009450000BRLFOB              0000000305800
L3KMB-COM-14AB        KMB-COM-14A    KMB-COM-14A008 OTPU6238450         000000003000350002600015
L4KMB-COM-14AB        KMB-COM-14A    KMB-COM-14A008 KMB-COM-14AAAAH27010-1313          00000600000000007710000BRLFOB              0000000333000
L3KMB-COM-14AB        KMB-COM-14A    KMB-COM-14A009 OTPU6238450         000000004000350002600015
L4KMB-COM-14AB        KMB-COM-14A    KMB-COM-14A009 KMB-COM-14AAAAU92070-1266          00001000000000003020000BRLFOB              0000000305800
L3KMB-COM-14AB        KMB-COM-14A    KMB-COM-14A010 OTPU6238450         000000003000350002600015
L4KMB-COM-14AB        KMB-COM-14A    KMB-COM-14A010 KMB-COM-14AAAAS92070-0014          00000800000000009450000BRLFOB              0000000305800
L3KMB-COM-14AB        KMB-COM-14A    KMB-COM-14A011 OTPU6238450         000000006000350003500031
L4KMB-COM-14AB        KMB-COM-14A    KMB-COM-14A011 KMB-COM-14AAAAI27010-1313          00000600000000007710000BRLFOB              0000000333000
L4KMB-COM-14AB        KMB-COM-14A    KMB-COM-14A011 KMB-COM-14AAAAT92070-0014          00000800000000009450000BRLFOB              0000000305800
L1KMB-1MU-030         AKA  KMB  2021-04-222021-06-01MOL SUCCESS                   SKMB-104021
L2KMB-1MU-030         KMB-1MU-030    EN650D-J3A1HA       0003000020
L3KMB-1MU-030         KMB-1MU-030    KMB-1MU-030001 OTPU6238450         000000067000560011100045
L4KMB-1MU-030         KMB-1MU-030    KMB-1MU-030001 KMB-1MU-030AAAB11005-0580  1A      00000200000000239590000BRLFOB              0000025064700
L3KMB-1MU-030         KMB-1MU-030    KMB-1MU-030002 BMOU9311643         000000348001110011100108
L4KMB-1MU-030         KMB-1MU-030    KMB-1MU-030002 KMB-1MU-030AAAA11004-0064          00000200000000022670000BRLFOB              0000000586600
L4KMB-1MU-030         KMB-1MU-030    KMB-1MU-030002 KMB-1MU-030AAAC11012-1590          00000200000000000770000BRLFOB              0000000117400
L4KMB-1MU-030         KMB-1MU-030    KMB-1MU-030002 KMB-1MU-030AAAD11061-0105          00000400000000002100000BRLFOB              0000000039400
L4KMB-1MU-030         KMB-1MU-030    KMB-1MU-030002 KMB-1MU-030AAAE11061-0107          00000200000000000250000BRLFOB              0000000005000
L4KMB-1MU-030         KMB-1MU-030    KMB-1MU-030002 KMB-1MU-030AAAF11061-0926          00000200000000008200000BRLFOB              0000000336000
L4KMB-1MU-030         KMB-1MU-030    KMB-1MU-030002 KMB-1MU-030AAAG12046-0040          00000200000000002270000BRLFOB              0000000176500
L4KMB-1MU-030         KMB-1MU-030    KMB-1MU-030002 KMB-1MU-030AAAH12048-0102          00000200000000034030000BRLFOB              0000000796500
L4KMB-1MU-030         KMB-1MU-030    KMB-1MU-030002 KMB-1MU-030AAAI12053-0051          00000200000000002350000BRLFOB              0000000064700
L4KMB-1MU-030         KMB-1MU-030    KMB-1MU-030002 KMB-1MU-030AAAJ12053-0059          00000200000000006720000BRLFOB              0000000367900
L4KMB-1MU-030         KMB-1MU-030    KMB-1MU-030002 KMB-1MU-030AAAK12053-0071          00000200000000010590000BRLFOB              0000000275000
L4KMB-1MU-030         KMB-1MU-030    KMB-1MU-030002 KMB-1MU-030AAAL12053-0075          00000200000000019940000BRLFOB              0000001081000
L4KMB-1MU-030         KMB-1MU-030    KMB-1MU-030002 KMB-1MU-030AAAM120CA0645           00000200000000000290000BRLFOB              0000000112700
L4KMB-1MU-030         KMB-1MU-030    KMB-1MU-030002 KMB-1MU-030AAAN120CB0512           00000800000000000120000BRLFOB              0000000031300
L4KMB-1MU-030         KMB-1MU-030    KMB-1MU-030002 KMB-1MU-030AAAO120CB0610           00000400000000000170000BRLFOB              0000000045200
L4KMB-1MU-030         KMB-1MU-030    KMB-1MU-030002 KMB-1MU-030AAAP120CB0614           00000400000000000190000BRLFOB              0000000051800
L4KMB-1MU-030         KMB-1MU-030    KMB-1MU-030002 KMB-1MU-030AAAQ120CB0825           00000800000000000410000BRLFOB              0000000142900
L4KMB-1MU-030         KMB-1MU-030    KMB-1MU-030002 KMB-1MU-030AAAR120CB0835           00000400000000000520000BRLFOB              0000000174200
L4KMB-1MU-030         KMB-1MU-030    KMB-1MU-030002 KMB-1MU-030AAAS13063-002           00000200000000000550000BRLFOB              0000000261000
L4KMB-1MU-030         KMB-1MU-030    KMB-1MU-030002 KMB-1MU-030AAAT130AA0510           00000600000000000080000BRLFOB              0000000032000
L4KMB-1MU-030         KMB-1MU-030    KMB-1MU-030002 KMB-1MU-030AAAU130AA0612           00000400000000000080000BRLFOB              0000000056000
L4KMB-1MU-030         KMB-1MU-030    KMB-1MU-030002 KMB-1MU-030AAAV130AA0614           00000200000000000090000BRLFOB              0000000059000
L4KMB-1MU-030         KMB-1MU-030    KMB-1MU-030002 KMB-1MU-030AAAW130BA0510           00000800000000000080000BRLFOB              0000000031200
L4KMB-1MU-030         KMB-1MU-030    KMB-1MU-030002 KMB-1MU-030AAAX130BA0520           00000400000000000110000BRLFOB              0000000043600
L4KMB-1MU-030         KMB-1MU-030    KMB-1MU-030002 KMB-1MU-030AAAY130BA0618           00000400000000000110000BRLFOB              0000000065000
L4KMB-1MU-030         KMB-1MU-030    KMB-1MU-030002 KMB-1MU-030AAAZ130BA0620           00000400000000000110000BRLFOB              0000000070000
L4KMB-1MU-030         KMB-1MU-030    KMB-1MU-030002 KMB-1MU-030AABA130BA0820           00000400000000000200000BRLFOB              0000000129000
L4KMB-1MU-030         KMB-1MU-030    KMB-1MU-030002 KMB-1MU-030AABB130BA0845           00000800000000000300000BRLFOB              0000000209000
L4KMB-1MU-030         KMB-1MU-030    KMB-1MU-030002 KMB-1MU-030AABC130BB0635           00000200000000000210000BRLFOB              0000000096000
L4KMB-1MU-030         KMB-1MU-030    KMB-1MU-030002 KMB-1MU-030AABD130BB0840           00000400000000000370000BRLFOB              0000000192000
L4KMB-1MU-030         KMB-1MU-030    KMB-1MU-030002 KMB-1MU-030AABE130BB0845           00000400000000000430000BRLFOB              0000000208000
L4KMB-1MU-030         KMB-1MU-030    KMB-1MU-030002 KMB-1MU-030AABF130CA0820           00000400000000000230000BRLFOB              0000000131000
L4KMB-1MU-030         KMB-1MU-030    KMB-1MU-030002 KMB-1MU-030AABG130CA1035           00000800000000000510000BRLFOB              0000000296000
L4KMB-1MU-030         KMB-1MU-030    KMB-1MU-030002 KMB-1MU-030AABH13144-0576          00000200000000025880000BRLFOB              0000001666000
L4KMB-1MU-030         KMB-1MU-030    KMB-1MU-030002 KMB-1MU-030AABI13193-0006          00000200000000023040000BRLFOB              0000000920000
L4KMB-1MU-030         KMB-1MU-030    KMB-1MU-030002 KMB-1MU-030AABJ13271-0575          00000200000000004670000BRLFOB              0000000152200
L4KMB-1MU-030         KMB-1MU-030    KMB-1MU-030002 KMB-1MU-030AABK132BA0510           00000200000000000090000BRLFOB              0000000027000
L4KMB-1MU-030         KMB-1MU-030    KMB-1MU-030002 KMB-1MU-030AABL132BA0830           00000200000000000290000BRLFOB              0000000143800
L4KMB-1MU-030         KMB-1MU-030    KMB-1MU-030002 KMB-1MU-030AABM132BB0512           00001400000000000140000BRLFOB              0000000030000
L4KMB-1MU-030         KMB-1MU-030    KMB-1MU-030002 KMB-1MU-030AABN132BB0608           00000200000000000120000BRLFOB              0000000037900
L4KMB-1MU-030         KMB-1MU-030    KMB-1MU-030002 KMB-1MU-030AABO132BB0814           00000400000000000250000BRLFOB              0000000094400
L4KMB-1MU-030         KMB-1MU-030    KMB-1MU-030002 KMB-1MU-030AABP132BB0822           00001200000000000300000BRLFOB              0000000119200
L4KMB-1MU-030         KMB-1MU-030    KMB-1MU-030002 KMB-1MU-030AABQ14013-1004          00000200000000000180000BRLFOB              0000000033500
L4KMB-1MU-030         KMB-1MU-030    KMB-1MU-030002 KMB-1MU-030AABR14043-0008          00000200000000003280000BRLFOB              0000000041500
L4KMB-1MU-030         KMB-1MU-030    KMB-1MU-030002 KMB-1MU-030AABS14092-1086          00000400000000000740000BRLFOB              0000000018400
L4KMB-1MU-030         KMB-1MU-030    KMB-1MU-030002 KMB-1MU-030AABT16065-0128          00000400000000007920000BRLFOB              0000000768700
L4KMB-1MU-030         KMB-1MU-030    KMB-1MU-030002 KMB-1MU-030AABU16085-0076          00000200000000032510000BRLFOB              0000004850000
L4KMB-1MU-030         KMB-1MU-030    KMB-1MU-030002 KMB-1MU-030AABV16126-0705          00000200000000023830000BRLFOB              0000000788000
L4KMB-1MU-030         KMB-1MU-030    KMB-1MU-030002 KMB-1MU-030AABW16126-0743          00000200000000025740000BRLFOB              0000001331500
L4KMB-1MU-030         KMB-1MU-030    KMB-1MU-030002 KMB-1MU-030AABX16126-1140          00000400000000001940000BRLFOB              0000000097000
L4KMB-1MU-030         KMB-1MU-030    KMB-1MU-030002 KMB-1MU-030AABY180BB0614           00000200000000000180000BRLFOB              0000000052000
L4KMB-1MU-030         KMB-1MU-030    KMB-1MU-030002 KMB-1MU-030AABZ21003-0206          00000100000000076030000BRLFOB              0000008899500
L4KMB-1MU-030         KMB-1MU-030    KMB-1MU-030002 KMB-1MU-030AACA21003-0206          00000100000000076030000BRLFOB              0000008899500
L4KMB-1MU-030         KMB-1MU-030    KMB-1MU-030002 KMB-1MU-030AACB21007-0601          00000050000000096840000BRLFOB              0000022168000
L4KMB-1MU-030         KMB-1MU-030    KMB-1MU-030002 KMB-1MU-030AACC21007-0601          00000050000000096840000BRLFOB              0000022168000
L4KMB-1MU-030         KMB-1MU-030    KMB-1MU-030002 KMB-1MU-030AACD21007-0601          00000050000000096840000BRLFOB              0000022168000
L4KMB-1MU-030         KMB-1MU-030    KMB-1MU-030002 KMB-1MU-030AACE21007-0601          00000050000000096840000BRLFOB              0000022168000
L4KMB-1MU-030         KMB-1MU-030    KMB-1MU-030002 KMB-1MU-030AACF21163-0040          00000080000000125610000BRLFOB              0000014633000
L4KMB-1MU-030         KMB-1MU-030    KMB-1MU-030002 KMB-1MU-030AACG21163-0040          00000080000000125610000BRLFOB              0000014633000
L4KMB-1MU-030         KMB-1MU-030    KMB-1MU-030002 KMB-1MU-030AACH21163-0040          00000040000000125610000BRLFOB              0000014633000
L4KMB-1MU-030         KMB-1MU-030    KMB-1MU-030002 KMB-1MU-030AACI21171-0033          00000400000000028810000BRLFOB              0000001061500
L4KMB-1MU-030         KMB-1MU-030    KMB-1MU-030002 KMB-1MU-030AACJ21176-0009          00000200000000007660000BRLFOB              0000000227200
L4KMB-1MU-030         KMB-1MU-030    KMB-1MU-030002 KMB-1MU-030AACK21176-0048          00000200000000006210000BRLFOB              0000000059300
L4KMB-1MU-030         KMB-1MU-030    KMB-1MU-030002 KMB-1MU-030AACL21176-0111          00000200000000031920000BRLFOB              0000000113600
L4KMB-1MU-030         KMB-1MU-030    KMB-1MU-030002 KMB-1MU-030AACM21176-0704          00000200000000022050000BRLFOB              0000000288600
L4KMB-1MU-030         KMB-1MU-030    KMB-1MU-030002 KMB-1MU-030AACN21176-0832          00000200000000059150000BRLFOB              0000000320000
L4KMB-1MU-030         KMB-1MU-030    KMB-1MU-030002 KMB-1MU-030AACO220AB0306           00000200000000000020000BRLFOB              0000000004700
L4KMB-1MU-030         KMB-1MU-030    KMB-1MU-030002 KMB-1MU-030AACP224AA0512           00000200000000000040000BRLFOB              0000000028400
L4KMB-1MU-030         KMB-1MU-030    KMB-1MU-030002 KMB-1MU-030AACQ224AB0408           00000400000000000050000BRLFOB              0000000012200
L4KMB-1MU-030         KMB-1MU-030    KMB-1MU-030002 KMB-1MU-030AACR23051-0042          00000200000000008640000BRLFOB              0000000528400
L4KMB-1MU-030         KMB-1MU-030    KMB-1MU-030002 KMB-1MU-030AACS23051-0043          00000200000000008640000BRLFOB              0000000710000
L4KMB-1MU-030         KMB-1MU-030    KMB-1MU-030002 KMB-1MU-030AACT27002-0006          00000200000000013470000BRLFOB              0000000194600
L4KMB-1MU-030         KMB-1MU-030    KMB-1MU-030002 KMB-1MU-030AACU290Q0606            00000200000000000080000BRLFOB              0000000007200
L4KMB-1MU-030         KMB-1MU-030    KMB-1MU-030002 KMB-1MU-030AACV318BA0800           00000400000000000120000BRLFOB              0000000028000
L4KMB-1MU-030         KMB-1MU-030    KMB-1MU-030002 KMB-1MU-030AACW33032-0042          00000200000000024420000BRLFOB              0000004595000
L4KMB-1MU-030         KMB-1MU-030    KMB-1MU-030002 KMB-1MU-030AACX33040-1109  1A      00000400000000004720000BRLFOB              0000000495000
L4KMB-1MU-030         KMB-1MU-030    KMB-1MU-030002 KMB-1MU-030AACY39110-0039          00000200000000005110000BRLFOB              0000000703000
L4KMB-1MU-030         KMB-1MU-030    KMB-1MU-030002 KMB-1MU-030AACZ39112-1053          00000200000000005260000BRLFOB              0000000246300
L4KMB-1MU-030         KMB-1MU-030    KMB-1MU-030002 KMB-1MU-030AADA39112-1054          00000200000000005260000BRLFOB              0000000246300
L4KMB-1MU-030         KMB-1MU-030    KMB-1MU-030002 KMB-1MU-030AADB39156-2695          00000200000000002400000BRLFOB              0000000274400
L4KMB-1MU-030         KMB-1MU-030    KMB-1MU-030002 KMB-1MU-030AADC41068-0059          00000200000000021780000BRLFOB              0000006269900
L4KMB-1MU-030         KMB-1MU-030    KMB-1MU-030002 KMB-1MU-030AADD41068-0592          00000200000000026130000BRLFOB              0000004990000
L4KMB-1MU-030         KMB-1MU-030    KMB-1MU-030002 KMB-1MU-030AADE42045-018           00000200000000001050000BRLFOB              0000000490200
L4KMB-1MU-030         KMB-1MU-030    KMB-1MU-030002 KMB-1MU-030AADF461DB0600           00000400000000000020000BRLFOB              0000000009400
L4KMB-1MU-030         KMB-1MU-030    KMB-1MU-030002 KMB-1MU-030AADG480J1300            00000200000000000060000BRLFOB              0000000004700
L4KMB-1MU-030         KMB-1MU-030    KMB-1MU-030002 KMB-1MU-030AADH49054-0001          00000200000000008580000BRLFOB              0000000499600
L4KMB-1MU-030         KMB-1MU-030    KMB-1MU-030002 KMB-1MU-030AADI49063-1055  2A      00000200000000006870000BRLFOB              0000000189000
L4KMB-1MU-030         KMB-1MU-030    KMB-1MU-030002 KMB-1MU-030AADJ49091-0001  KD      00001600000000000210000BRLFOB              0000000010400
L4KMB-1MU-030         KMB-1MU-030    KMB-1MU-030002 KMB-1MU-030AADK51044-0850          00000200000000020070000BRLFOB              0000000377000
L4KMB-1MU-030         KMB-1MU-030    KMB-1MU-030002 KMB-1MU-030AADL51049-0743          00000100000000069350000BRLFOB              0000003803100
L4KMB-1MU-030         KMB-1MU-030    KMB-1MU-030002 KMB-1MU-030AADM51049-0743          00000100000000069350000BRLFOB              0000003803100
L4KMB-1MU-030         KMB-1MU-030    KMB-1MU-030002 KMB-1MU-030AADN52005-0071          00000200000000007880000BRLFOB              0000000080000
L4KMB-1MU-030         KMB-1MU-030    KMB-1MU-030002 KMB-1MU-030AADO53044-0556          00000200000000000680000BRLFOB              0000000072800
L4KMB-1MU-030         KMB-1MU-030    KMB-1MU-030002 KMB-1MU-030AADP53044-0584          00000200000000000610000BRLFOB              0000000055600
L4KMB-1MU-030         KMB-1MU-030    KMB-1MU-030002 KMB-1MU-030AADQ53044-1185          00000200000000000550000BRLFOB              0000000063000
L4KMB-1MU-030         KMB-1MU-030    KMB-1MU-030002 KMB-1MU-030AADR55020-0985          00000200000000011190000BRLFOB              0000000543300
L4KMB-1MU-030         KMB-1MU-030    KMB-1MU-030002 KMB-1MU-030AADS550AA2015           00000400000000000030000BRLFOB              0000000003800
L4KMB-1MU-030         KMB-1MU-030    KMB-1MU-030002 KMB-1MU-030AADT550AA4040           00000200000000000150000BRLFOB              0000000039400
L4KMB-1MU-030         KMB-1MU-030    KMB-1MU-030002 KMB-1MU-030AADU551A0408            00000600000000000090000BRLFOB              0000000007600
L4KMB-1MU-030         KMB-1MU-030    KMB-1MU-030002 KMB-1MU-030AADV551A0814            00000600000000000320000BRLFOB              0000000053900
L4KMB-1MU-030         KMB-1MU-030    KMB-1MU-030002 KMB-1MU-030AADW555A0408            00000200000000000060000BRLFOB              0000000004400
L4KMB-1MU-030         KMB-1MU-030    KMB-1MU-030002 KMB-1MU-030AADX56001-0310          00000050000000041990000BRLFOB              0000004635000
L4KMB-1MU-030         KMB-1MU-030    KMB-1MU-030002 KMB-1MU-030AADY56001-0310          00000050000000041990000BRLFOB              0000004635000
L4KMB-1MU-030         KMB-1MU-030    KMB-1MU-030002 KMB-1MU-030AADZ56001-0310          00000050000000041990000BRLFOB              0000004635000
L4KMB-1MU-030         KMB-1MU-030    KMB-1MU-030002 KMB-1MU-030AAEA56001-0310          00000050000000041990000BRLFOB              0000004635000
L4KMB-1MU-030         KMB-1MU-030    KMB-1MU-030002 KMB-1MU-030AAEB56001-0311          00000050000000041990000BRLFOB              0000004635000
L4KMB-1MU-030         KMB-1MU-030    KMB-1MU-030002 KMB-1MU-030AAEC56001-0311          00000050000000041990000BRLFOB              0000004635000
L4KMB-1MU-030         KMB-1MU-030    KMB-1MU-030002 KMB-1MU-030AAED56001-0311          00000050000000041990000BRLFOB              0000004635000
L4KMB-1MU-030         KMB-1MU-030    KMB-1MU-030002 KMB-1MU-030AAEE56001-0311          00000050000000041990000BRLFOB              0000004635000
L4KMB-1MU-030         KMB-1MU-030    KMB-1MU-030002 KMB-1MU-030AAEF56071-0838          00000200000000000970000BRLFOB              0000000006600
L4KMB-1MU-030         KMB-1MU-030    KMB-1MU-030002 KMB-1MU-030AAEG670D1508            00000200000000000150000BRLFOB              0000000001500
L4KMB-1MU-030         KMB-1MU-030    KMB-1MU-030002 KMB-1MU-030AAEH670D2018            00000200000000000340000BRLFOB              0000000003500
L4KMB-1MU-030         KMB-1MU-030    KMB-1MU-030002 KMB-1MU-030AAEI92001-1602          00000200000000000960000BRLFOB              0000000762000
L4KMB-1MU-030         KMB-1MU-030    KMB-1MU-030002 KMB-1MU-030AAEJ92001-1860          00000200000000000120000BRLFOB              0000000064000
L4KMB-1MU-030         KMB-1MU-030    KMB-1MU-030002 KMB-1MU-030AAEK92002-1143          00000800000000000200000BRLFOB              0000000055400
L4KMB-1MU-030         KMB-1MU-030    KMB-1MU-030002 KMB-1MU-030AAEL92004-0024          00000200000000002350000BRLFOB              0000000276000
L4KMB-1MU-030         KMB-1MU-030    KMB-1MU-030002 KMB-1MU-030AAEM92009-1360          00000200000000000180000BRLFOB              0000000035500
L4KMB-1MU-030         KMB-1MU-030    KMB-1MU-030002 KMB-1MU-030AAEN92009-1375          00000200000000000180000BRLFOB              0000000025800
L4KMB-1MU-030         KMB-1MU-030    KMB-1MU-030002 KMB-1MU-030AAEO92009-1677          00000200000000000360000BRLFOB              0000000046200
L4KMB-1MU-030         KMB-1MU-030    KMB-1MU-030002 KMB-1MU-030AAEP92009-1984          00000200000000000090000BRLFOB              0000000026800
L4KMB-1MU-030         KMB-1MU-030    KMB-1MU-030002 KMB-1MU-030AAEQ92015-077           00000200000000000280000BRLFOB              0000000116000
L4KMB-1MU-030         KMB-1MU-030    KMB-1MU-030002 KMB-1MU-030AAER92015-1188          00000400000000000460000BRLFOB              0000000077000
L4KMB-1MU-030         KMB-1MU-030    KMB-1MU-030002 KMB-1MU-030AAES92015-1555          00000200000000001410000BRLFOB              0000000332600
L4KMB-1MU-030         KMB-1MU-030    KMB-1MU-030002 KMB-1MU-030AAET92015-1724          00000200000000001430000BRLFOB              0000000289400
L4KMB-1MU-030         KMB-1MU-030    KMB-1MU-030002 KMB-1MU-030AAEU92015-1757          00001200000000000830000BRLFOB              0000000021200
L4KMB-1MU-030         KMB-1MU-030    KMB-1MU-030002 KMB-1MU-030AAEV92022-1093          00000400000000000300000BRLFOB              0000000012900
L4KMB-1MU-030         KMB-1MU-030    KMB-1MU-030002 KMB-1MU-030AAEW92022-1868          00000200000000001560000BRLFOB              0000000162200
L4KMB-1MU-030         KMB-1MU-030    KMB-1MU-030002 KMB-1MU-030AAEX92026-087           00000200000000002090000BRLFOB              0000000118400
L4KMB-1MU-030         KMB-1MU-030    KMB-1MU-030002 KMB-1MU-030AAEY92033-1041          00000200000000000350000BRLFOB              0000000054200
L4KMB-1MU-030         KMB-1MU-030    KMB-1MU-030002 KMB-1MU-030AAEZ92033-1102          00000400000000000070000BRLFOB              0000000004400
L4KMB-1MU-030         KMB-1MU-030    KMB-1MU-030002 KMB-1MU-030AAFA92033-1166  1A      00000400000000000130000BRLFOB              0000000010800
L4KMB-1MU-030         KMB-1MU-030    KMB-1MU-030002 KMB-1MU-030AAFB92036-008           00000800000000000060000BRLFOB              0000000005000
L4KMB-1MU-030         KMB-1MU-030    KMB-1MU-030002 KMB-1MU-030AAFC92039-0068          00000200000000000410000BRLFOB              0000000005000
L4KMB-1MU-030         KMB-1MU-030    KMB-1MU-030002 KMB-1MU-030AAFD92039-0088          00000600000000000450000BRLFOB              0000000012800
L4KMB-1MU-030         KMB-1MU-030    KMB-1MU-030002 KMB-1MU-030AAFE92042-014           00000600000000000100000BRLFOB              0000000015400
L4KMB-1MU-030         KMB-1MU-030    KMB-1MU-030002 KMB-1MU-030AAFF92043-1037          00000600000000000180000BRLFOB              0000000025400
L4KMB-1MU-030         KMB-1MU-030    KMB-1MU-030002 KMB-1MU-030AAFG92043-1263          00000800000000000100000BRLFOB              0000000019600
L4KMB-1MU-030         KMB-1MU-030    KMB-1MU-030002 KMB-1MU-030AAFH92043-1358          00000400000000001230000BRLFOB              0000000348000
L4KMB-1MU-030         KMB-1MU-030    KMB-1MU-030002 KMB-1MU-030AAFI92043-1567          00000800000000000450000BRLFOB              0000000055000
L4KMB-1MU-030         KMB-1MU-030    KMB-1MU-030002 KMB-1MU-030AAFJ92043-4009          00000400000000000260000BRLFOB              0000000033800
L4KMB-1MU-030         KMB-1MU-030    KMB-1MU-030002 KMB-1MU-030AAFK92046-1202          00000600000000006130000BRLFOB              0000000423200
L4KMB-1MU-030         KMB-1MU-030    KMB-1MU-030002 KMB-1MU-030AAFL92046-1273          00000600000000005430000BRLFOB              0000000339300
L4KMB-1MU-030         KMB-1MU-030    KMB-1MU-030002 KMB-1MU-030AAFM92048-1110  KD      00000400000000005180000BRLFOB              0000000300000
L4KMB-1MU-030         KMB-1MU-030    KMB-1MU-030002 KMB-1MU-030AAFN92048-1111  KD      00000400000000005840000BRLFOB              0000000362000
L4KMB-1MU-030         KMB-1MU-030    KMB-1MU-030002 KMB-1MU-030AAFO92049-0093          00000400000000001400000BRLFOB              0000000013600
L4KMB-1MU-030         KMB-1MU-030    KMB-1MU-030002 KMB-1MU-030AAFP92049-0791          00000200000000001470000BRLFOB              0000000036000
L4KMB-1MU-030         KMB-1MU-030    KMB-1MU-030002 KMB-1MU-030AAFR92049-1519          00000200000000001130000BRLFOB              0000000010000
L4KMB-1MU-030         KMB-1MU-030    KMB-1MU-030002 KMB-1MU-030AAFS92057-0098          00000200000000015290000BRLFOB              0000001003000
L4KMB-1MU-030         KMB-1MU-030    KMB-1MU-030002 KMB-1MU-030AAFT92057-0618          00000200000000018450000BRLFOB              0000002615600
L4KMB-1MU-030         KMB-1MU-030    KMB-1MU-030002 KMB-1MU-030AAFU92066-0003          00000200000000001020000BRLFOB              0000000115000
L4KMB-1MU-030         KMB-1MU-030    KMB-1MU-030002 KMB-1MU-030AAFV92066-0054          00000200000000001720000BRLFOB              0000000042200
L4KMB-1MU-030         KMB-1MU-030    KMB-1MU-030002 KMB-1MU-030AAFW92066-0061  1A      00000200000000001110000BRLFOB              0000000067700
L4KMB-1MU-030         KMB-1MU-030    KMB-1MU-030002 KMB-1MU-030AAFX92066-0071          00000200000000000240000BRLFOB              0000000010000
L4KMB-1MU-030         KMB-1MU-030    KMB-1MU-030002 KMB-1MU-030AAFY92071-1270          00000400000000001750000BRLFOB              0000000012000
L4KMB-1MU-030         KMB-1MU-030    KMB-1MU-030002 KMB-1MU-030AAFZ92072-3874          00000400000000000120000BRLFOB              0000000006500
L4KMB-1MU-030         KMB-1MU-030    KMB-1MU-030002 KMB-1MU-030AAGA92075-261           00000200000000000190000BRLFOB              0000000020000
L4KMB-1MU-030         KMB-1MU-030    KMB-1MU-030002 KMB-1MU-030AAGB92092-1018          00001200000000002540000BRLFOB              0000000160000
L4KMB-1MU-030         KMB-1MU-030    KMB-1MU-030002 KMB-1MU-030AAGC92093-1030          00000200000000000890000BRLFOB              0000000002500
L4KMB-1MU-030         KMB-1MU-030    KMB-1MU-030002 KMB-1MU-030AAGD92140-1068          00000400000000003390000BRLFOB              0000000280000
L4KMB-1MU-030         KMB-1MU-030    KMB-1MU-030002 KMB-1MU-030AAGE92143-1498  1A      00000200000000002670000BRLFOB              0000000102000
L4KMB-1MU-030         KMB-1MU-030    KMB-1MU-030002 KMB-1MU-030AAGF92144-1126          00000400000000000620000BRLFOB              0000000058100
L4KMB-1MU-030         KMB-1MU-030    KMB-1MU-030002 KMB-1MU-030AAGG92144-1141          00000200000000000490000BRLFOB              0000000015300
L4KMB-1MU-030         KMB-1MU-030    KMB-1MU-030002 KMB-1MU-030AAGH92144-1818          00000200000000002370000BRLFOB              0000000266800
L4KMB-1MU-030         KMB-1MU-030    KMB-1MU-030002 KMB-1MU-030AAGI92145-0066          00000200000000000900000BRLFOB              0000000020500
L4KMB-1MU-030         KMB-1MU-030    KMB-1MU-030002 KMB-1MU-030AAGJ92145-1158          00000200000000001010000BRLFOB              0000000202900
L4KMB-1MU-030         KMB-1MU-030    KMB-1MU-030002 KMB-1MU-030AAGK92145-1744          00000200000000001750000BRLFOB              0000000233400
L4KMB-1MU-030         KMB-1MU-030    KMB-1MU-030002 KMB-1MU-030AAGL92150-1690          00000800000000000980000BRLFOB              0000000275800
L4KMB-1MU-030         KMB-1MU-030    KMB-1MU-030002 KMB-1MU-030AAGM92152-1075  1A      00000200000000002490000BRLFOB              0000000050000
L4KMB-1MU-030         KMB-1MU-030    KMB-1MU-030002 KMB-1MU-030AAGN92153-0327          00000400000000000530000BRLFOB              0000000125000
L4KMB-1MU-030         KMB-1MU-030    KMB-1MU-030002 KMB-1MU-030AAGO92153-0793          00000800000000000920000BRLFOB              0000000153000
L4KMB-1MU-030         KMB-1MU-030    KMB-1MU-030002 KMB-1MU-030AAGP92153-0816          00000400000000000290000BRLFOB              0000000066300
L4KMB-1MU-030         KMB-1MU-030    KMB-1MU-030002 KMB-1MU-030AAGQ92153-0962          00001200000000000530000BRLFOB              0000000116200
L4KMB-1MU-030         KMB-1MU-030    KMB-1MU-030002 KMB-1MU-030AAGR92153-0963          00000600000000000440000BRLFOB              0000000106300
L4KMB-1MU-030         KMB-1MU-030    KMB-1MU-030002 KMB-1MU-030AAGS92153-1414          00000200000000000290000BRLFOB              0000000042100
L4KMB-1MU-030         KMB-1MU-030    KMB-1MU-030002 KMB-1MU-030AAGT92153-1616          00000600000000000210000BRLFOB              0000000035900
L4KMB-1MU-030         KMB-1MU-030    KMB-1MU-030002 KMB-1MU-030AAGU92154-0107          00000400000000000390000BRLFOB              0000000070000
L4KMB-1MU-030         KMB-1MU-030    KMB-1MU-030002 KMB-1MU-030AAGV92154-0116          00000800000000000420000BRLFOB              0000000079100
L4KMB-1MU-030         KMB-1MU-030    KMB-1MU-030002 KMB-1MU-030AAGW92154-0117          00000400000000000360000BRLFOB              0000000067200
L4KMB-1MU-030         KMB-1MU-030    KMB-1MU-030002 KMB-1MU-030AAGX92154-0264          00000800000000002350000BRLFOB              0000000505000
L4KMB-1MU-030         KMB-1MU-030    KMB-1MU-030002 KMB-1MU-030AAGY92154-0402          00000400000000000320000BRLFOB              0000000050700
L4KMB-1MU-030         KMB-1MU-030    KMB-1MU-030002 KMB-1MU-030AAGZ92154-0484          00000200000000000400000BRLFOB              0000000056000
L4KMB-1MU-030         KMB-1MU-030    KMB-1MU-030002 KMB-1MU-030AAHA92154-0504          00000800000000000380000BRLFOB              0000000062800
L4KMB-1MU-030         KMB-1MU-030    KMB-1MU-030002 KMB-1MU-030AAHB92154-0730          00000400000000001560000BRLFOB              0000000147400
L4KMB-1MU-030         KMB-1MU-030    KMB-1MU-030002 KMB-1MU-030AAHC92154-0774          00000600000000000170000BRLFOB              0000000052900
L4KMB-1MU-030         KMB-1MU-030    KMB-1MU-030002 KMB-1MU-030AAHD92154-0856          00000400000000000360000BRLFOB              0000000040900
L4KMB-1MU-030         KMB-1MU-030    KMB-1MU-030002 KMB-1MU-030AAHE92154-1506          00000400000000000400000BRLFOB              0000000026100
L4KMB-1MU-030         KMB-1MU-030    KMB-1MU-030002 KMB-1MU-030AAHF92154-1532          00000400000000000280000BRLFOB              0000000078300
L4KMB-1MU-030         KMB-1MU-030    KMB-1MU-030002 KMB-1MU-030AAHG92154-1577          00000600000000000460000BRLFOB              0000000079100
L4KMB-1MU-030         KMB-1MU-030    KMB-1MU-030002 KMB-1MU-030AAHH92154-1691          00001800000000000320000BRLFOB              0000000026400
L4KMB-1MU-030         KMB-1MU-030    KMB-1MU-030002 KMB-1MU-030AAHI92154-1706          00000400000000001140000BRLFOB              0000000210000
L4KMB-1MU-030         KMB-1MU-030    KMB-1MU-030002 KMB-1MU-030AAHJ92154-1730          00000200000000001230000BRLFOB              0000000410000
L4KMB-1MU-030         KMB-1MU-030    KMB-1MU-030002 KMB-1MU-030AAHK92154-1769          00000600000000000720000BRLFOB              0000000076800
L4KMB-1MU-030         KMB-1MU-030    KMB-1MU-030002 KMB-1MU-030AAHL92154-1805          00000400000000001060000BRLFOB              0000000145000
L4KMB-1MU-030         KMB-1MU-030    KMB-1MU-030002 KMB-1MU-030AAHM92154-1812          00000200000000007210000BRLFOB              0000000702000
L4KMB-1MU-030         KMB-1MU-030    KMB-1MU-030002 KMB-1MU-030AAHN92154-1865          00001800000000000620000BRLFOB              0000000147000
L4KMB-1MU-030         KMB-1MU-030    KMB-1MU-030002 KMB-1MU-030AAHO92154-3818          00000200000000014030000BRLFOB              0000000962200
L4KMB-1MU-030         KMB-1MU-030    KMB-1MU-030002 KMB-1MU-030AAHP92154-4341          00000200000000001490000BRLFOB              0000000194200
L4KMB-1MU-030         KMB-1MU-030    KMB-1MU-030002 KMB-1MU-030AAHQ92160-1423          00000400000000003370000BRLFOB              0000000576200
L4KMB-1MU-030         KMB-1MU-030    KMB-1MU-030002 KMB-1MU-030AAHR92161-0232          00000400000000001800000BRLFOB              0000000310000
L4KMB-1MU-030         KMB-1MU-030    KMB-1MU-030002 KMB-1MU-030AAHS92161-0342  KD      00000800000000006230000BRLFOB              0000000468000
L4KMB-1MU-030         KMB-1MU-030    KMB-1MU-030002 KMB-1MU-030AAHT92161-0664          00000400000000001310000BRLFOB              0000000014000
L4KMB-1MU-030         KMB-1MU-030    KMB-1MU-030002 KMB-1MU-030AAHU92161-0673          00000200000000000900000BRLFOB              0000000034000
L4KMB-1MU-030         KMB-1MU-030    KMB-1MU-030002 KMB-1MU-030AAHV92161-0943          00000800000000000460000BRLFOB              0000000005000
L4KMB-1MU-030         KMB-1MU-030    KMB-1MU-030002 KMB-1MU-030AAHW92161-0944          00000800000000000520000BRLFOB              0000000009000
L4KMB-1MU-030         KMB-1MU-030    KMB-1MU-030002 KMB-1MU-030AAHX92171-0316          00000200000000000480000BRLFOB              0000000020000
L4KMB-1MU-030         KMB-1MU-030    KMB-1MU-030002 KMB-1MU-030AAHY92171-0337          00000400000000001910000BRLFOB              0000000101600
L4KMB-1MU-030         KMB-1MU-030    KMB-1MU-030002 KMB-1MU-030AAHZ92171-0817          00000200000000000410000BRLFOB              0000000011000
L4KMB-1MU-030         KMB-1MU-030    KMB-1MU-030002 KMB-1MU-030AAIA92171-1415          00000800000000000330000BRLFOB              0000000016000
L4KMB-1MU-030         KMB-1MU-030    KMB-1MU-030002 KMB-1MU-030AAIB92171-1819          00000400000000000820000BRLFOB              0000000016400
L4KMB-1MU-030         KMB-1MU-030    KMB-1MU-030002 KMB-1MU-030AAIC92172-0238          00000400000000000100000BRLFOB              0000000030000
L4KMB-1MU-030         KMB-1MU-030    KMB-1MU-030002 KMB-1MU-030AAID92172-0262          00000200000000000070000BRLFOB              0000000024000
L4KMB-1MU-030         KMB-1MU-030    KMB-1MU-030002 KMB-1MU-030AAIE92173-0082  1A      00000200000000001190000BRLFOB              0000000040000
L4KMB-1MU-030         KMB-1MU-030    KMB-1MU-030002 KMB-1MU-030AAIF92173-0868          00000400000000000550000BRLFOB              0000000018600
L4KMB-1MU-030         KMB-1MU-030    KMB-1MU-030002 KMB-1MU-030AAIG92173-1022          00000400000000000290000BRLFOB              0000000013000
L4KMB-1MU-030         KMB-1MU-030    KMB-1MU-030002 KMB-1MU-030AAIH92173-1062          00000200000000000700000BRLFOB              0000000051000
L4KMB-1MU-030         KMB-1MU-030    KMB-1MU-030002 KMB-1MU-030AAII92173-1368          00000200000000000500000BRLFOB              0000000030000
L4KMB-1MU-030         KMB-1MU-030    KMB-1MU-030002 KMB-1MU-030AAIJ92173-1416          00000400000000000890000BRLFOB              0000000151000
L4KMB-1MU-030         KMB-1MU-030    KMB-1MU-030002 KMB-1MU-030AAIK92192-0225          00000200000000000630000BRLFOB              0000000026000
L4KMB-1MU-030         KMB-1MU-030    KMB-1MU-030002 KMB-1MU-030AAIM92192-1386          00000200000000007290000BRLFOB              0000000180000
L4KMB-1MU-030         KMB-1MU-030    KMB-1MU-030002 KMB-1MU-030AAIN92200-0220  1A      00000200000000003530000BRLFOB              0000000220000
L4KMB-1MU-030         KMB-1MU-030    KMB-1MU-030002 KMB-1MU-030AAIO92200-0296          00000200000000000620000BRLFOB              0000000177500
L4KMB-1MU-030         KMB-1MU-030    KMB-1MU-030002 KMB-1MU-030AAIP92200-0352          00000400000000000740000BRLFOB              0000000085100
L4KMB-1MU-030         KMB-1MU-030    KMB-1MU-030002 KMB-1MU-030AAIQ92200-0363          00001400000000000880000BRLFOB              0000000031300
L4KMB-1MU-030         KMB-1MU-030    KMB-1MU-030002 KMB-1MU-030AAIR92200-1063          00000600000000000110000BRLFOB              0000000012000
L4KMB-1MU-030         KMB-1MU-030    KMB-1MU-030002 KMB-1MU-030AAIS92200-1388          00000400000000000160000BRLFOB              0000000001400
L4KMB-1MU-030         KMB-1MU-030    KMB-1MU-030002 KMB-1MU-030AAIT92200-1482          00000400000000000600000BRLFOB              0000000079100
L4KMB-1MU-030         KMB-1MU-030    KMB-1MU-030002 KMB-1MU-030AAIU92210-0188          00000200000000000150000BRLFOB              0000000031400
L4KMB-1MU-030         KMB-1MU-030    KMB-1MU-030002 KMB-1MU-030AAIV92210-0223          00000200000000003990000BRLFOB              0000000152000
L4KMB-1MU-030         KMB-1MU-030    KMB-1MU-030002 KMB-1MU-030AAIW92210-0276          00000720000000000590000BRLFOB              0000000088000
L4KMB-1MU-030         KMB-1MU-030    KMB-1MU-030002 KMB-1MU-030AAIX92210-0276          00000480000000000590000BRLFOB              0000000088000
L4KMB-1MU-030         KMB-1MU-030    KMB-1MU-030002 KMB-1MU-030AAIY92210-0784          00000400000000001530000BRLFOB              0000000077300
L4KMB-1MU-030         KMB-1MU-030    KMB-1MU-030002 KMB-1MU-030AAIZ92210-0850          00000200000000003350000BRLFOB              0000000351000
L4KMB-1MU-030         KMB-1MU-030    KMB-1MU-030002 KMB-1MU-030AAJA92210-1081          00000400000000001580000BRLFOB              0000000086600
L4KMB-1MU-030         KMB-1MU-030    KMB-1MU-030002 KMB-1MU-030AAJB92210-1114          00000800000000000280000BRLFOB              0000000058000
L4KMB-1MU-030         KMB-1MU-030    KMB-1MU-030002 KMB-1MU-030AAJC92210-1139          00000400000000000690000BRLFOB              0000000086200
L4KMB-1MU-030         KMB-1MU-030    KMB-1MU-030002 KMB-1MU-030AAJD92210-1139          00000400000000000690000BRLFOB              0000000086200
L4KMB-1MU-030         KMB-1MU-030    KMB-1MU-030002 KMB-1MU-030AAJE92210-1352          00000800000000000250000BRLFOB              0000000054200
L4KMB-1MU-030         KMB-1MU-030    KMB-1MU-030002 KMB-1MU-030AAJF92049-1223          00001200000000001030000BRLFOB              0000000040800
L3KMB-1MU-030         KMB-1MU-030    KMB-1MU-030003 OTPU6238450         000000003000320005200021
L4KMB-1MU-030         KMB-1MU-030    KMB-1MU-030003 KMB-1MU-030AAIL92192-1385          00000400000000013430000BRLFOB              0000000540000
L1KMB-1MU-031         AKA  KMB  2021-04-222021-06-01MOL SUCCESS                   SKMB-104021
L2KMB-1MU-031         KMB-1MU-031    EN650D-J3A1HA       0003100020
L3KMB-1MU-031         KMB-1MU-031    KMB-1MU-031001 OTPU6238450         000000067000560011100045
L4KMB-1MU-031         KMB-1MU-031    KMB-1MU-031001 KMB-1MU-031AAAB11005-0580  1A      00000200000000239590000BRLFOB              0000025064700
L3KMB-1MU-031         KMB-1MU-031    KMB-1MU-031002 SEGU9906952         000000345001110011100108
L4KMB-1MU-031         KMB-1MU-031    KMB-1MU-031002 KMB-1MU-031AAAA11004-0064          00000200000000022670000BRLFOB              0000000586600
L4KMB-1MU-031         KMB-1MU-031    KMB-1MU-031002 KMB-1MU-031AAAC11012-1590          00000200000000000770000BRLFOB              0000000117400
L4KMB-1MU-031         KMB-1MU-031    KMB-1MU-031002 KMB-1MU-031AAAD11061-0105          00000400000000002100000BRLFOB              0000000039400
L4KMB-1MU-031         KMB-1MU-031    KMB-1MU-031002 KMB-1MU-031AAAE11061-0107          00000200000000000250000BRLFOB              0000000005000
L4KMB-1MU-031         KMB-1MU-031    KMB-1MU-031002 KMB-1MU-031AAAF11061-0926          00000200000000008200000BRLFOB              0000000336000
L4KMB-1MU-031         KMB-1MU-031    KMB-1MU-031002 KMB-1MU-031AAAG12046-0040          00000200000000002270000BRLFOB              0000000176500
L4KMB-1MU-031         KMB-1MU-031    KMB-1MU-031002 KMB-1MU-031AAAH12048-0102          00000200000000034030000BRLFOB              0000000796500
L4KMB-1MU-031         KMB-1MU-031    KMB-1MU-031002 KMB-1MU-031AAAI12053-0051          00000200000000002350000BRLFOB              0000000064700
L4KMB-1MU-031         KMB-1MU-031    KMB-1MU-031002 KMB-1MU-031AAAJ12053-0059          00000200000000006720000BRLFOB              0000000367900
L4KMB-1MU-031         KMB-1MU-031    KMB-1MU-031002 KMB-1MU-031AAAK12053-0071          00000200000000010590000BRLFOB              0000000275000
L4KMB-1MU-031         KMB-1MU-031    KMB-1MU-031002 KMB-1MU-031AAAL12053-0075          00000200000000019940000BRLFOB              0000001081000
L4KMB-1MU-031         KMB-1MU-031    KMB-1MU-031002 KMB-1MU-031AAAM120CA0645           00000200000000000290000BRLFOB              0000000112700
L4KMB-1MU-031         KMB-1MU-031    KMB-1MU-031002 KMB-1MU-031AAAN120CB0512           00000800000000000120000BRLFOB              0000000031300
L4KMB-1MU-031         KMB-1MU-031    KMB-1MU-031002 KMB-1MU-031AAAO120CB0610           00000400000000000170000BRLFOB              0000000045200
L4KMB-1MU-031         KMB-1MU-031    KMB-1MU-031002 KMB-1MU-031AAAP120CB0614           00000400000000000190000BRLFOB              0000000051800
L4KMB-1MU-031         KMB-1MU-031    KMB-1MU-031002 KMB-1MU-031AAAQ120CB0825           00000800000000000410000BRLFOB              0000000142900
L4KMB-1MU-031         KMB-1MU-031    KMB-1MU-031002 KMB-1MU-031AAAR120CB0835           00000400000000000520000BRLFOB              0000000174200
L4KMB-1MU-031         KMB-1MU-031    KMB-1MU-031002 KMB-1MU-031AAAS13063-002           00000200000000000550000BRLFOB              0000000261000
L4KMB-1MU-031         KMB-1MU-031    KMB-1MU-031002 KMB-1MU-031AAAT130AA0510           00000600000000000080000BRLFOB              0000000032000
L4KMB-1MU-031         KMB-1MU-031    KMB-1MU-031002 KMB-1MU-031AAAU130AA0612           00000400000000000080000BRLFOB              0000000056000
L4KMB-1MU-031         KMB-1MU-031    KMB-1MU-031002 KMB-1MU-031AAAV130AA0614           00000200000000000090000BRLFOB              0000000059000
L4KMB-1MU-031         KMB-1MU-031    KMB-1MU-031002 KMB-1MU-031AAAW130BA0510           00000800000000000080000BRLFOB              0000000031200
L4KMB-1MU-031         KMB-1MU-031    KMB-1MU-031002 KMB-1MU-031AAAX130BA0520           00000400000000000110000BRLFOB              0000000043600
L4KMB-1MU-031         KMB-1MU-031    KMB-1MU-031002 KMB-1MU-031AAAY130BA0618           00000400000000000110000BRLFOB              0000000065000
L4KMB-1MU-031         KMB-1MU-031    KMB-1MU-031002 KMB-1MU-031AAAZ130BA0620           00000400000000000110000BRLFOB              0000000070000
L4KMB-1MU-031         KMB-1MU-031    KMB-1MU-031002 KMB-1MU-031AABA130BA0820           00000400000000000200000BRLFOB              0000000129000
L4KMB-1MU-031         KMB-1MU-031    KMB-1MU-031002 KMB-1MU-031AABB130BA0845           00000800000000000300000BRLFOB              0000000209000
L4KMB-1MU-031         KMB-1MU-031    KMB-1MU-031002 KMB-1MU-031AABC130BB0635           00000200000000000210000BRLFOB              0000000096000
L4KMB-1MU-031         KMB-1MU-031    KMB-1MU-031002 KMB-1MU-031AABD130BB0840           00000400000000000370000BRLFOB              0000000192000
L4KMB-1MU-031         KMB-1MU-031    KMB-1MU-031002 KMB-1MU-031AABE130BB0845           00000400000000000430000BRLFOB              0000000208000
L4KMB-1MU-031         KMB-1MU-031    KMB-1MU-031002 KMB-1MU-031AABF130CA0820           00000400000000000230000BRLFOB              0000000131000
L4KMB-1MU-031         KMB-1MU-031    KMB-1MU-031002 KMB-1MU-031AABG130CA1035           00000800000000000510000BRLFOB              0000000296000
L4KMB-1MU-031         KMB-1MU-031    KMB-1MU-031002 KMB-1MU-031AABH13144-0576          00000200000000025880000BRLFOB              0000001666000
L4KMB-1MU-031         KMB-1MU-031    KMB-1MU-031002 KMB-1MU-031AABI13193-0006          00000200000000023040000BRLFOB              0000000920000
L4KMB-1MU-031         KMB-1MU-031    KMB-1MU-031002 KMB-1MU-031AABJ13271-0575          00000200000000004670000BRLFOB              0000000152200
L4KMB-1MU-031         KMB-1MU-031    KMB-1MU-031002 KMB-1MU-031AABK132BA0510           00000200000000000090000BRLFOB              0000000027000
L4KMB-1MU-031         KMB-1MU-031    KMB-1MU-031002 KMB-1MU-031AABL132BA0830           00000200000000000290000BRLFOB              0000000143800
L4KMB-1MU-031         KMB-1MU-031    KMB-1MU-031002 KMB-1MU-031AABM132BB0512           00001400000000000140000BRLFOB              0000000030000
L4KMB-1MU-031         KMB-1MU-031    KMB-1MU-031002 KMB-1MU-031AABN132BB0608           00000200000000000120000BRLFOB              0000000037900
L4KMB-1MU-031         KMB-1MU-031    KMB-1MU-031002 KMB-1MU-031AABO132BB0814           00000400000000000250000BRLFOB              0000000094400
L4KMB-1MU-031         KMB-1MU-031    KMB-1MU-031002 KMB-1MU-031AABP132BB0822           00001200000000000300000BRLFOB              0000000119200
L4KMB-1MU-031         KMB-1MU-031    KMB-1MU-031002 KMB-1MU-031AABQ14013-1004          00000200000000000180000BRLFOB              0000000033500
L4KMB-1MU-031         KMB-1MU-031    KMB-1MU-031002 KMB-1MU-031AABR14043-0008          00000200000000003280000BRLFOB              0000000041500
L4KMB-1MU-031         KMB-1MU-031    KMB-1MU-031002 KMB-1MU-031AABS14092-1086          00000400000000000740000BRLFOB              0000000018400
L4KMB-1MU-031         KMB-1MU-031    KMB-1MU-031002 KMB-1MU-031AABT16065-0128          00000400000000007920000BRLFOB              0000000768700
L4KMB-1MU-031         KMB-1MU-031    KMB-1MU-031002 KMB-1MU-031AABU16085-0076          00000200000000032510000BRLFOB              0000004850000
L4KMB-1MU-031         KMB-1MU-031    KMB-1MU-031002 KMB-1MU-031AABV16126-0705          00000200000000023830000BRLFOB              0000000788000
L4KMB-1MU-031         KMB-1MU-031    KMB-1MU-031002 KMB-1MU-031AABW16126-0743          00000200000000025740000BRLFOB              0000001331500
L4KMB-1MU-031         KMB-1MU-031    KMB-1MU-031002 KMB-1MU-031AABX16126-1140          00000400000000001940000BRLFOB              0000000097000
L4KMB-1MU-031         KMB-1MU-031    KMB-1MU-031002 KMB-1MU-031AABY180BB0614           00000200000000000180000BRLFOB              0000000052000
L4KMB-1MU-031         KMB-1MU-031    KMB-1MU-031002 KMB-1MU-031AABZ21003-0206          00000100000000076030000BRLFOB              0000008899500
L4KMB-1MU-031         KMB-1MU-031    KMB-1MU-031002 KMB-1MU-031AACA21003-0206          00000100000000076030000BRLFOB              0000008899500
L4KMB-1MU-031         KMB-1MU-031    KMB-1MU-031002 KMB-1MU-031AACB21007-0601          00000050000000096840000BRLFOB              0000022168000
L4KMB-1MU-031         KMB-1MU-031    KMB-1MU-031002 KMB-1MU-031AACC21007-0601          00000050000000096840000BRLFOB              0000022168000
L4KMB-1MU-031         KMB-1MU-031    KMB-1MU-031002 KMB-1MU-031AACD21007-0601          00000050000000096840000BRLFOB              0000022168000
L4KMB-1MU-031         KMB-1MU-031    KMB-1MU-031002 KMB-1MU-031AACE21007-0601          00000050000000096840000BRLFOB              0000022168000
L4KMB-1MU-031         KMB-1MU-031    KMB-1MU-031002 KMB-1MU-031AACF21163-0040          00000080000000125610000BRLFOB              0000014633000
L4KMB-1MU-031         KMB-1MU-031    KMB-1MU-031002 KMB-1MU-031AACG21163-0040          00000080000000125610000BRLFOB              0000014633000
L4KMB-1MU-031         KMB-1MU-031    KMB-1MU-031002 KMB-1MU-031AACH21163-0040          00000040000000125610000BRLFOB              0000014633000
L4KMB-1MU-031         KMB-1MU-031    KMB-1MU-031002 KMB-1MU-031AACI21171-0033          00000400000000028810000BRLFOB              0000001061500
L4KMB-1MU-031         KMB-1MU-031    KMB-1MU-031002 KMB-1MU-031AACJ21176-0009          00000200000000007660000BRLFOB              0000000227200
L4KMB-1MU-031         KMB-1MU-031    KMB-1MU-031002 KMB-1MU-031AACK21176-0048          00000200000000006210000BRLFOB              0000000059300
L4KMB-1MU-031         KMB-1MU-031    KMB-1MU-031002 KMB-1MU-031AACL21176-0111          00000200000000031920000BRLFOB              0000000113600
L4KMB-1MU-031         KMB-1MU-031    KMB-1MU-031002 KMB-1MU-031AACM21176-0704          00000200000000022050000BRLFOB              0000000288600
L4KMB-1MU-031         KMB-1MU-031    KMB-1MU-031002 KMB-1MU-031AACN21176-0832          00000200000000059150000BRLFOB              0000000320000
L4KMB-1MU-031         KMB-1MU-031    KMB-1MU-031002 KMB-1MU-031AACO220AB0306           00000200000000000020000BRLFOB              0000000004700
L4KMB-1MU-031         KMB-1MU-031    KMB-1MU-031002 KMB-1MU-031AACP224AA0512           00000200000000000040000BRLFOB              0000000028400
L4KMB-1MU-031         KMB-1MU-031    KMB-1MU-031002 KMB-1MU-031AACQ224AB0408           00000400000000000050000BRLFOB              0000000012200
L4KMB-1MU-031         KMB-1MU-031    KMB-1MU-031002 KMB-1MU-031AACR23051-0042          00000200000000008640000BRLFOB              0000000528400
L4KMB-1MU-031         KMB-1MU-031    KMB-1MU-031002 KMB-1MU-031AACS23051-0043          00000200000000008640000BRLFOB              0000000710000
L4KMB-1MU-031         KMB-1MU-031    KMB-1MU-031002 KMB-1MU-031AACT27002-0006          00000200000000013470000BRLFOB              0000000194600
L4KMB-1MU-031         KMB-1MU-031    KMB-1MU-031002 KMB-1MU-031AACU290Q0606            00000200000000000080000BRLFOB              0000000007200
L4KMB-1MU-031         KMB-1MU-031    KMB-1MU-031002 KMB-1MU-031AACV318BA0800           00000400000000000120000BRLFOB              0000000028000
L4KMB-1MU-031         KMB-1MU-031    KMB-1MU-031002 KMB-1MU-031AACW33032-0042          00000200000000024420000BRLFOB              0000004595000
L4KMB-1MU-031         KMB-1MU-031    KMB-1MU-031002 KMB-1MU-031AACX33040-1109  1A      00000400000000004720000BRLFOB              0000000495000
L4KMB-1MU-031         KMB-1MU-031    KMB-1MU-031002 KMB-1MU-031AACY39110-0039          00000200000000005110000BRLFOB              0000000703000
L4KMB-1MU-031         KMB-1MU-031    KMB-1MU-031002 KMB-1MU-031AACZ39112-1053          00000200000000005260000BRLFOB              0000000246300
L4KMB-1MU-031         KMB-1MU-031    KMB-1MU-031002 KMB-1MU-031AADA39112-1054          00000200000000005260000BRLFOB              0000000246300
L4KMB-1MU-031         KMB-1MU-031    KMB-1MU-031002 KMB-1MU-031AADB39156-2695          00000200000000002400000BRLFOB              0000000274400
L4KMB-1MU-031         KMB-1MU-031    KMB-1MU-031002 KMB-1MU-031AADC41068-0059          00000200000000021780000BRLFOB              0000006269900
L4KMB-1MU-031         KMB-1MU-031    KMB-1MU-031002 KMB-1MU-031AADD41068-0592          00000200000000026130000BRLFOB              0000004990000
L4KMB-1MU-031         KMB-1MU-031    KMB-1MU-031002 KMB-1MU-031AADE42045-018           00000200000000001050000BRLFOB              0000000490200
L4KMB-1MU-031         KMB-1MU-031    KMB-1MU-031002 KMB-1MU-031AADF461DB0600           00000400000000000020000BRLFOB              0000000009400
L4KMB-1MU-031         KMB-1MU-031    KMB-1MU-031002 KMB-1MU-031AADG480J1300            00000200000000000060000BRLFOB              0000000004700
L4KMB-1MU-031         KMB-1MU-031    KMB-1MU-031002 KMB-1MU-031AADH49054-0001          00000200000000008580000BRLFOB              0000000499600
L4KMB-1MU-031         KMB-1MU-031    KMB-1MU-031002 KMB-1MU-031AADI49063-1055  2A      00000200000000006870000BRLFOB              0000000189000
L4KMB-1MU-031         KMB-1MU-031    KMB-1MU-031002 KMB-1MU-031AADJ49091-0001  KD      00001600000000000210000BRLFOB              0000000010400
L4KMB-1MU-031         KMB-1MU-031    KMB-1MU-031002 KMB-1MU-031AADL51049-0743          00000100000000069350000BRLFOB              0000003803100
L4KMB-1MU-031         KMB-1MU-031    KMB-1MU-031002 KMB-1MU-031AADM51049-0743          00000100000000069350000BRLFOB              0000003803100
L4KMB-1MU-031         KMB-1MU-031    KMB-1MU-031002 KMB-1MU-031AADN52005-0071          00000200000000007880000BRLFOB              0000000080000
L4KMB-1MU-031         KMB-1MU-031    KMB-1MU-031002 KMB-1MU-031AADO53044-0556          00000200000000000680000BRLFOB              0000000072800
L4KMB-1MU-031         KMB-1MU-031    KMB-1MU-031002 KMB-1MU-031AADP53044-0584          00000200000000000610000BRLFOB              0000000055600
L4KMB-1MU-031         KMB-1MU-031    KMB-1MU-031002 KMB-1MU-031AADQ53044-1185          00000200000000000550000BRLFOB              0000000063000
L4KMB-1MU-031         KMB-1MU-031    KMB-1MU-031002 KMB-1MU-031AADR55020-0985          00000200000000011190000BRLFOB              0000000543300
L4KMB-1MU-031         KMB-1MU-031    KMB-1MU-031002 KMB-1MU-031AADS550AA2015           00000400000000000030000BRLFOB              0000000003800
L4KMB-1MU-031         KMB-1MU-031    KMB-1MU-031002 KMB-1MU-031AADT550AA4040           00000200000000000150000BRLFOB              0000000039400
L4KMB-1MU-031         KMB-1MU-031    KMB-1MU-031002 KMB-1MU-031AADU551A0408            00000600000000000090000BRLFOB              0000000007600
L4KMB-1MU-031         KMB-1MU-031    KMB-1MU-031002 KMB-1MU-031AADV551A0814            00000600000000000320000BRLFOB              0000000053900
L4KMB-1MU-031         KMB-1MU-031    KMB-1MU-031002 KMB-1MU-031AADW555A0408            00000200000000000060000BRLFOB              0000000004400
L4KMB-1MU-031         KMB-1MU-031    KMB-1MU-031002 KMB-1MU-031AADX56001-0310          00000050000000041990000BRLFOB              0000004635000
L4KMB-1MU-031         KMB-1MU-031    KMB-1MU-031002 KMB-1MU-031AADY56001-0310          00000050000000041990000BRLFOB              0000004635000
L4KMB-1MU-031         KMB-1MU-031    KMB-1MU-031002 KMB-1MU-031AADZ56001-0310          00000050000000041990000BRLFOB              0000004635000
L4KMB-1MU-031         KMB-1MU-031    KMB-1MU-031002 KMB-1MU-031AAEA56001-0310          00000050000000041990000BRLFOB              0000004635000
L4KMB-1MU-031         KMB-1MU-031    KMB-1MU-031002 KMB-1MU-031AAEB56001-0311          00000050000000041990000BRLFOB              0000004635000
L4KMB-1MU-031         KMB-1MU-031    KMB-1MU-031002 KMB-1MU-031AAEC56001-0311          00000050000000041990000BRLFOB              0000004635000
L4KMB-1MU-031         KMB-1MU-031    KMB-1MU-031002 KMB-1MU-031AAED56001-0311          00000050000000041990000BRLFOB              0000004635000
L4KMB-1MU-031         KMB-1MU-031    KMB-1MU-031002 KMB-1MU-031AAEE56001-0311          00000050000000041990000BRLFOB              0000004635000
L4KMB-1MU-031         KMB-1MU-031    KMB-1MU-031002 KMB-1MU-031AAEF56071-0838          00000200000000000970000BRLFOB              0000000006600
L4KMB-1MU-031         KMB-1MU-031    KMB-1MU-031002 KMB-1MU-031AAEG670D1508            00000200000000000150000BRLFOB              0000000001500
L4KMB-1MU-031         KMB-1MU-031    KMB-1MU-031002 KMB-1MU-031AAEH670D2018            00000200000000000340000BRLFOB              0000000003500
L4KMB-1MU-031         KMB-1MU-031    KMB-1MU-031002 KMB-1MU-031AAEI92001-1602          00000200000000000960000BRLFOB              0000000762000
L4KMB-1MU-031         KMB-1MU-031    KMB-1MU-031002 KMB-1MU-031AAEJ92001-1860          00000200000000000120000BRLFOB              0000000064000
L4KMB-1MU-031         KMB-1MU-031    KMB-1MU-031002 KMB-1MU-031AAEK92002-1143          00000800000000000200000BRLFOB              0000000055400
L4KMB-1MU-031         KMB-1MU-031    KMB-1MU-031002 KMB-1MU-031AAEL92004-0024          00000200000000002350000BRLFOB              0000000276000
L4KMB-1MU-031         KMB-1MU-031    KMB-1MU-031002 KMB-1MU-031AAEM92009-1360          00000200000000000180000BRLFOB              0000000035500
L4KMB-1MU-031         KMB-1MU-031    KMB-1MU-031002 KMB-1MU-031AAEN92009-1375          00000200000000000180000BRLFOB              0000000025800
L4KMB-1MU-031         KMB-1MU-031    KMB-1MU-031002 KMB-1MU-031AAEO92009-1677          00000200000000000360000BRLFOB              0000000046200
L4KMB-1MU-031         KMB-1MU-031    KMB-1MU-031002 KMB-1MU-031AAEP92009-1984          00000200000000000090000BRLFOB              0000000026800
L4KMB-1MU-031         KMB-1MU-031    KMB-1MU-031002 KMB-1MU-031AAEQ92015-077           00000200000000000280000BRLFOB              0000000116000
L4KMB-1MU-031         KMB-1MU-031    KMB-1MU-031002 KMB-1MU-031AAER92015-1188          00000400000000000460000BRLFOB              0000000077000
L4KMB-1MU-031         KMB-1MU-031    KMB-1MU-031002 KMB-1MU-031AAES92015-1555          00000200000000001410000BRLFOB              0000000332600
L4KMB-1MU-031         KMB-1MU-031    KMB-1MU-031002 KMB-1MU-031AAET92015-1724          00000200000000001430000BRLFOB              0000000289400
L4KMB-1MU-031         KMB-1MU-031    KMB-1MU-031002 KMB-1MU-031AAEU92015-1757          00001200000000000830000BRLFOB              0000000021200
L4KMB-1MU-031         KMB-1MU-031    KMB-1MU-031002 KMB-1MU-031AAEV92022-1093          00000400000000000300000BRLFOB              0000000012900
L4KMB-1MU-031         KMB-1MU-031    KMB-1MU-031002 KMB-1MU-031AAEW92022-1868          00000200000000001560000BRLFOB              0000000162200
L4KMB-1MU-031         KMB-1MU-031    KMB-1MU-031002 KMB-1MU-031AAEX92026-087           00000200000000002090000BRLFOB              0000000118400
L4KMB-1MU-031         KMB-1MU-031    KMB-1MU-031002 KMB-1MU-031AAEY92033-1041          00000200000000000350000BRLFOB              0000000054200
L4KMB-1MU-031         KMB-1MU-031    KMB-1MU-031002 KMB-1MU-031AAEZ92033-1102          00000400000000000070000BRLFOB              0000000004400
L4KMB-1MU-031         KMB-1MU-031    KMB-1MU-031002 KMB-1MU-031AAFA92033-1166  1A      00000400000000000130000BRLFOB              0000000010800
L4KMB-1MU-031         KMB-1MU-031    KMB-1MU-031002 KMB-1MU-031AAFB92036-008           00000800000000000060000BRLFOB              0000000005000
L4KMB-1MU-031         KMB-1MU-031    KMB-1MU-031002 KMB-1MU-031AAFC92039-0068          00000200000000000410000BRLFOB              0000000005000
L4KMB-1MU-031         KMB-1MU-031    KMB-1MU-031002 KMB-1MU-031AAFD92039-0088          00000600000000000450000BRLFOB              0000000012800
L4KMB-1MU-031         KMB-1MU-031    KMB-1MU-031002 KMB-1MU-031AAFE92042-014           00000600000000000100000BRLFOB              0000000015400
L4KMB-1MU-031         KMB-1MU-031    KMB-1MU-031002 KMB-1MU-031AAFF92043-1037          00000600000000000180000BRLFOB              0000000025400
L4KMB-1MU-031         KMB-1MU-031    KMB-1MU-031002 KMB-1MU-031AAFG92043-1263          00000800000000000100000BRLFOB              0000000019600
L4KMB-1MU-031         KMB-1MU-031    KMB-1MU-031002 KMB-1MU-031AAFH92043-1358          00000400000000001230000BRLFOB              0000000348000
L4KMB-1MU-031         KMB-1MU-031    KMB-1MU-031002 KMB-1MU-031AAFI92043-1567          00000800000000000450000BRLFOB              0000000055000
L4KMB-1MU-031         KMB-1MU-031    KMB-1MU-031002 KMB-1MU-031AAFJ92043-4009          00000400000000000260000BRLFOB              0000000033800
L4KMB-1MU-031         KMB-1MU-031    KMB-1MU-031002 KMB-1MU-031AAFK92046-1202          00000600000000006130000BRLFOB              0000000423200
L4KMB-1MU-031         KMB-1MU-031    KMB-1MU-031002 KMB-1MU-031AAFL92046-1273          00000600000000005430000BRLFOB              0000000339300
L4KMB-1MU-031         KMB-1MU-031    KMB-1MU-031002 KMB-1MU-031AAFM92048-1110  KD      00000400000000005180000BRLFOB              0000000300000
L4KMB-1MU-031         KMB-1MU-031    KMB-1MU-031002 KMB-1MU-031AAFN92048-1111  KD      00000400000000005840000BRLFOB              0000000362000
L4KMB-1MU-031         KMB-1MU-031    KMB-1MU-031002 KMB-1MU-031AAFO92049-0093          00000400000000001400000BRLFOB              0000000013600
L4KMB-1MU-031         KMB-1MU-031    KMB-1MU-031002 KMB-1MU-031AAFP92049-0791          00000200000000001470000BRLFOB              0000000036000
L4KMB-1MU-031         KMB-1MU-031    KMB-1MU-031002 KMB-1MU-031AAFQ92049-1519          00000200000000001130000BRLFOB              0000000010000
L4KMB-1MU-031         KMB-1MU-031    KMB-1MU-031002 KMB-1MU-031AAFR92057-0098          00000200000000015290000BRLFOB              0000001003000
L4KMB-1MU-031         KMB-1MU-031    KMB-1MU-031002 KMB-1MU-031AAFS92057-0618          00000200000000018450000BRLFOB              0000002615600
L4KMB-1MU-031         KMB-1MU-031    KMB-1MU-031002 KMB-1MU-031AAFT92066-0003          00000200000000001020000BRLFOB              0000000115000
L4KMB-1MU-031         KMB-1MU-031    KMB-1MU-031002 KMB-1MU-031AAFU92066-0054          00000200000000001720000BRLFOB              0000000042200
L4KMB-1MU-031         KMB-1MU-031    KMB-1MU-031002 KMB-1MU-031AAFV92066-0061  1A      00000200000000001110000BRLFOB              0000000067700
L4KMB-1MU-031         KMB-1MU-031    KMB-1MU-031002 KMB-1MU-031AAFW92066-0071          00000200000000000240000BRLFOB              0000000010000
L4KMB-1MU-031         KMB-1MU-031    KMB-1MU-031002 KMB-1MU-031AAFX92071-1270          00000400000000001750000BRLFOB              0000000012000
L4KMB-1MU-031         KMB-1MU-031    KMB-1MU-031002 KMB-1MU-031AAFY92072-3874          00000400000000000120000BRLFOB              0000000006500
L4KMB-1MU-031         KMB-1MU-031    KMB-1MU-031002 KMB-1MU-031AAFZ92075-261           00000200000000000190000BRLFOB              0000000020000
L4KMB-1MU-031         KMB-1MU-031    KMB-1MU-031002 KMB-1MU-031AAGA92092-1018          00001200000000002540000BRLFOB              0000000160000
L4KMB-1MU-031         KMB-1MU-031    KMB-1MU-031002 KMB-1MU-031AAGB92093-1030          00000200000000000890000BRLFOB              0000000002500
L4KMB-1MU-031         KMB-1MU-031    KMB-1MU-031002 KMB-1MU-031AAGC92140-1068          00000400000000003390000BRLFOB              0000000280000
L4KMB-1MU-031         KMB-1MU-031    KMB-1MU-031002 KMB-1MU-031AAGD92143-1498  1A      00000200000000002670000BRLFOB              0000000102000
L4KMB-1MU-031         KMB-1MU-031    KMB-1MU-031002 KMB-1MU-031AAGE92144-1126          00000400000000000620000BRLFOB              0000000058100
L4KMB-1MU-031         KMB-1MU-031    KMB-1MU-031002 KMB-1MU-031AAGF92144-1141          00000200000000000490000BRLFOB              0000000015300
L4KMB-1MU-031         KMB-1MU-031    KMB-1MU-031002 KMB-1MU-031AAGG92144-1818          00000200000000002370000BRLFOB              0000000266800
L4KMB-1MU-031         KMB-1MU-031    KMB-1MU-031002 KMB-1MU-031AAGH92145-0066          00000200000000000900000BRLFOB              0000000020500
L4KMB-1MU-031         KMB-1MU-031    KMB-1MU-031002 KMB-1MU-031AAGI92145-1158          00000200000000001010000BRLFOB              0000000202900
L4KMB-1MU-031         KMB-1MU-031    KMB-1MU-031002 KMB-1MU-031AAGJ92145-1744          00000200000000001750000BRLFOB              0000000233400
L4KMB-1MU-031         KMB-1MU-031    KMB-1MU-031002 KMB-1MU-031AAGK92150-1690          00000800000000000980000BRLFOB              0000000275800
L4KMB-1MU-031         KMB-1MU-031    KMB-1MU-031002 KMB-1MU-031AAGL92152-1075  1A      00000200000000002490000BRLFOB              0000000050000
L4KMB-1MU-031         KMB-1MU-031    KMB-1MU-031002 KMB-1MU-031AAGM92153-0327          00000400000000000530000BRLFOB              0000000125000
L4KMB-1MU-031         KMB-1MU-031    KMB-1MU-031002 KMB-1MU-031AAGN92153-0793          00000800000000000920000BRLFOB              0000000153000
L4KMB-1MU-031         KMB-1MU-031    KMB-1MU-031002 KMB-1MU-031AAGO92153-0816          00000400000000000290000BRLFOB              0000000066300
L4KMB-1MU-031         KMB-1MU-031    KMB-1MU-031002 KMB-1MU-031AAGP92153-0962          00001200000000000530000BRLFOB              0000000116200
L4KMB-1MU-031         KMB-1MU-031    KMB-1MU-031002 KMB-1MU-031AAGQ92153-0963          00000600000000000440000BRLFOB              0000000106300
L4KMB-1MU-031         KMB-1MU-031    KMB-1MU-031002 KMB-1MU-031AAGR92153-1414          00000200000000000290000BRLFOB              0000000042100
L4KMB-1MU-031         KMB-1MU-031    KMB-1MU-031002 KMB-1MU-031AAGS92153-1616          00000600000000000210000BRLFOB              0000000035900
L4KMB-1MU-031         KMB-1MU-031    KMB-1MU-031002 KMB-1MU-031AAGT92154-0107          00000400000000000390000BRLFOB              0000000070000
L4KMB-1MU-031         KMB-1MU-031    KMB-1MU-031002 KMB-1MU-031AAGU92154-0116          00000800000000000420000BRLFOB              0000000079100
L4KMB-1MU-031         KMB-1MU-031    KMB-1MU-031002 KMB-1MU-031AAGV92154-0117          00000400000000000360000BRLFOB              0000000067200
L4KMB-1MU-031         KMB-1MU-031    KMB-1MU-031002 KMB-1MU-031AAGW92154-0264          00000800000000002350000BRLFOB              0000000505000
L4KMB-1MU-031         KMB-1MU-031    KMB-1MU-031002 KMB-1MU-031AAGX92154-0402          00000400000000000320000BRLFOB              0000000050700
L4KMB-1MU-031         KMB-1MU-031    KMB-1MU-031002 KMB-1MU-031AAGY92154-0484          00000200000000000400000BRLFOB              0000000056000
L4KMB-1MU-031         KMB-1MU-031    KMB-1MU-031002 KMB-1MU-031AAGZ92154-0504          00000800000000000380000BRLFOB              0000000062800
L4KMB-1MU-031         KMB-1MU-031    KMB-1MU-031002 KMB-1MU-031AAHA92154-0730          00000400000000001560000BRLFOB              0000000147400
L4KMB-1MU-031         KMB-1MU-031    KMB-1MU-031002 KMB-1MU-031AAHB92154-0774          00000600000000000170000BRLFOB              0000000052900
L4KMB-1MU-031         KMB-1MU-031    KMB-1MU-031002 KMB-1MU-031AAHC92154-0856          00000400000000000360000BRLFOB              0000000040900
L4KMB-1MU-031         KMB-1MU-031    KMB-1MU-031002 KMB-1MU-031AAHD92154-1506          00000400000000000400000BRLFOB              0000000026100
L4KMB-1MU-031         KMB-1MU-031    KMB-1MU-031002 KMB-1MU-031AAHE92154-1532          00000400000000000280000BRLFOB              0000000078300
L4KMB-1MU-031         KMB-1MU-031    KMB-1MU-031002 KMB-1MU-031AAHF92154-1577          00000600000000000460000BRLFOB              0000000079100
L4KMB-1MU-031         KMB-1MU-031    KMB-1MU-031002 KMB-1MU-031AAHG92154-1691          00001800000000000320000BRLFOB              0000000026400
L4KMB-1MU-031         KMB-1MU-031    KMB-1MU-031002 KMB-1MU-031AAHH92154-1706          00000400000000001140000BRLFOB              0000000210000
L4KMB-1MU-031         KMB-1MU-031    KMB-1MU-031002 KMB-1MU-031AAHI92154-1730          00000200000000001230000BRLFOB              0000000410000
L4KMB-1MU-031         KMB-1MU-031    KMB-1MU-031002 KMB-1MU-031AAHJ92154-1769          00000600000000000720000BRLFOB              0000000076800
L4KMB-1MU-031         KMB-1MU-031    KMB-1MU-031002 KMB-1MU-031AAHK92154-1805          00000400000000001060000BRLFOB              0000000145000
L4KMB-1MU-031         KMB-1MU-031    KMB-1MU-031002 KMB-1MU-031AAHL92154-1812          00000200000000007210000BRLFOB              0000000702000
L4KMB-1MU-031         KMB-1MU-031    KMB-1MU-031002 KMB-1MU-031AAHM92154-1865          00001800000000000620000BRLFOB              0000000147000
L4KMB-1MU-031         KMB-1MU-031    KMB-1MU-031002 KMB-1MU-031AAHN92154-3818          00000200000000014030000BRLFOB              0000000962200
L4KMB-1MU-031         KMB-1MU-031    KMB-1MU-031002 KMB-1MU-031AAHO92154-4341          00000200000000001490000BRLFOB              0000000194200
L4KMB-1MU-031         KMB-1MU-031    KMB-1MU-031002 KMB-1MU-031AAHP92160-1423          00000400000000003370000BRLFOB              0000000576200
L4KMB-1MU-031         KMB-1MU-031    KMB-1MU-031002 KMB-1MU-031AAHQ92161-0232          00000400000000001800000BRLFOB              0000000310000
L4KMB-1MU-031         KMB-1MU-031    KMB-1MU-031002 KMB-1MU-031AAHR92161-0342  KD      00000800000000006230000BRLFOB              0000000468000
L4KMB-1MU-031         KMB-1MU-031    KMB-1MU-031002 KMB-1MU-031AAHS92161-0664          00000400000000001310000BRLFOB              0000000014000
L4KMB-1MU-031         KMB-1MU-031    KMB-1MU-031002 KMB-1MU-031AAHT92161-0673          00000200000000000900000BRLFOB              0000000034000
L4KMB-1MU-031         KMB-1MU-031    KMB-1MU-031002 KMB-1MU-031AAHU92161-0943          00000800000000000460000BRLFOB              0000000005000
L4KMB-1MU-031         KMB-1MU-031    KMB-1MU-031002 KMB-1MU-031AAHV92161-0944          00000800000000000520000BRLFOB              0000000009000
L4KMB-1MU-031         KMB-1MU-031    KMB-1MU-031002 KMB-1MU-031AAHW92171-0316          00000200000000000480000BRLFOB              0000000020000
L4KMB-1MU-031         KMB-1MU-031    KMB-1MU-031002 KMB-1MU-031AAHX92171-0337          00000400000000001910000BRLFOB              0000000101600
L4KMB-1MU-031         KMB-1MU-031    KMB-1MU-031002 KMB-1MU-031AAHY92171-0817          00000200000000000410000BRLFOB              0000000011000
L4KMB-1MU-031         KMB-1MU-031    KMB-1MU-031002 KMB-1MU-031AAHZ92171-1415          00000800000000000330000BRLFOB              0000000016000
L4KMB-1MU-031         KMB-1MU-031    KMB-1MU-031002 KMB-1MU-031AAIA92171-1819          00000400000000000820000BRLFOB              0000000016400
L4KMB-1MU-031         KMB-1MU-031    KMB-1MU-031002 KMB-1MU-031AAIB92172-0238          00000400000000000100000BRLFOB              0000000030000
L4KMB-1MU-031         KMB-1MU-031    KMB-1MU-031002 KMB-1MU-031AAIC92172-0262          00000200000000000070000BRLFOB              0000000024000
L4KMB-1MU-031         KMB-1MU-031    KMB-1MU-031002 KMB-1MU-031AAID92173-0082  1A      00000200000000001190000BRLFOB              0000000040000
L4KMB-1MU-031         KMB-1MU-031    KMB-1MU-031002 KMB-1MU-031AAIE92173-0868          00000400000000000550000BRLFOB              0000000018600
L4KMB-1MU-031         KMB-1MU-031    KMB-1MU-031002 KMB-1MU-031AAIF92173-1022          00000400000000000290000BRLFOB              0000000013000
L4KMB-1MU-031         KMB-1MU-031    KMB-1MU-031002 KMB-1MU-031AAIG92173-1062          00000200000000000700000BRLFOB              0000000051000
L4KMB-1MU-031         KMB-1MU-031    KMB-1MU-031002 KMB-1MU-031AAIH92173-1368          00000200000000000500000BRLFOB              0000000030000
L4KMB-1MU-031         KMB-1MU-031    KMB-1MU-031002 KMB-1MU-031AAII92173-1416          00000400000000000890000BRLFOB              0000000151000
L4KMB-1MU-031         KMB-1MU-031    KMB-1MU-031002 KMB-1MU-031AAIJ92192-0225          00000200000000000630000BRLFOB              0000000026000
L4KMB-1MU-031         KMB-1MU-031    KMB-1MU-031002 KMB-1MU-031AAIM92200-0220  1A      00000200000000003530000BRLFOB              0000000220000
L4KMB-1MU-031         KMB-1MU-031    KMB-1MU-031002 KMB-1MU-031AAIN92200-0296          00000200000000000620000BRLFOB              0000000177500
L4KMB-1MU-031         KMB-1MU-031    KMB-1MU-031002 KMB-1MU-031AAIO92200-0352          00000400000000000740000BRLFOB              0000000085100
L4KMB-1MU-031         KMB-1MU-031    KMB-1MU-031002 KMB-1MU-031AAIP92200-0363          00001400000000000880000BRLFOB              0000000031300
L4KMB-1MU-031         KMB-1MU-031    KMB-1MU-031002 KMB-1MU-031AAIQ92200-1063          00000600000000000110000BRLFOB              0000000012000
L4KMB-1MU-031         KMB-1MU-031    KMB-1MU-031002 KMB-1MU-031AAIR92200-1388          00000400000000000160000BRLFOB              0000000001400
L4KMB-1MU-031         KMB-1MU-031    KMB-1MU-031002 KMB-1MU-031AAIS92200-1482          00000400000000000600000BRLFOB              0000000079100
L4KMB-1MU-031         KMB-1MU-031    KMB-1MU-031002 KMB-1MU-031AAIT92210-0188          00000200000000000150000BRLFOB              0000000031400
L4KMB-1MU-031         KMB-1MU-031    KMB-1MU-031002 KMB-1MU-031AAIU92210-0223          00000200000000003990000BRLFOB              0000000152000
L4KMB-1MU-031         KMB-1MU-031    KMB-1MU-031002 KMB-1MU-031AAIV92210-0276          00000720000000000590000BRLFOB              0000000088000
L4KMB-1MU-031         KMB-1MU-031    KMB-1MU-031002 KMB-1MU-031AAIW92210-0276          00000480000000000590000BRLFOB              0000000088000
L4KMB-1MU-031         KMB-1MU-031    KMB-1MU-031002 KMB-1MU-031AAIX92210-0784          00000400000000001530000BRLFOB              0000000077300
L4KMB-1MU-031         KMB-1MU-031    KMB-1MU-031002 KMB-1MU-031AAIY92210-0850          00000200000000003350000BRLFOB              0000000351000
L4KMB-1MU-031         KMB-1MU-031    KMB-1MU-031002 KMB-1MU-031AAIZ92210-1081          00000400000000001580000BRLFOB              0000000086600
L4KMB-1MU-031         KMB-1MU-031    KMB-1MU-031002 KMB-1MU-031AAJA92210-1114          00000800000000000280000BRLFOB              0000000058000
L4KMB-1MU-031         KMB-1MU-031    KMB-1MU-031002 KMB-1MU-031AAJB92210-1139          00000400000000000690000BRLFOB              0000000086200
L4KMB-1MU-031         KMB-1MU-031    KMB-1MU-031002 KMB-1MU-031AAJC92210-1139          00000400000000000690000BRLFOB              0000000086200
L4KMB-1MU-031         KMB-1MU-031    KMB-1MU-031002 KMB-1MU-031AAJD92210-1352          00000800000000000250000BRLFOB              0000000054200
L3KMB-1MU-031         KMB-1MU-031    KMB-1MU-031003 OTPU6238450         000000006000530005300031
L4KMB-1MU-031         KMB-1MU-031    KMB-1MU-031003 KMB-1MU-031AADK51044-0850          00000200000000020070000BRLFOB              0000000377000
L4KMB-1MU-031         KMB-1MU-031    KMB-1MU-031003 KMB-1MU-031AAIK92192-1385          00000400000000013430000BRLFOB              0000000540000
L4KMB-1MU-031         KMB-1MU-031    KMB-1MU-031003 KMB-1MU-031AAIL92192-1386          00000200000000007290000BRLFOB              0000000180000
L1KMB-1PA-047         AKA  KMB  2021-04-222021-06-01MOL SUCCESS                   SKMB-104021
L2KMB-1PA-047         KMB-1PA-047    ER400D-C3A1HA       0004700020
L3KMB-1PA-047         KMB-1PA-047    KMB-1PA-047001 OTPU6238450         000000054000560011100045
L4KMB-1PA-047         KMB-1PA-047    KMB-1PA-047001 KMB-1PA-047AAAB11005-0668  3A      00000200000000142660000BRLFOB              0000018910000
L3KMB-1PA-047         KMB-1PA-047    KMB-1PA-047002 SEGU9906952         000000126001110011100080
L4KMB-1PA-047         KMB-1PA-047    KMB-1PA-047002 KMB-1PA-047AAAA11004-0774          00000200000000017410000BRLFOB              0000000524000
L4KMB-1PA-047         KMB-1PA-047    KMB-1PA-047002 KMB-1PA-047AAAC11012-1362          00000200000000000850000BRLFOB              0000000133500
L4KMB-1PA-047         KMB-1PA-047    KMB-1PA-047002 KMB-1PA-047AAAD11056-0238          00000200000000000610000BRLFOB              0000000032900
L4KMB-1PA-047         KMB-1PA-047    KMB-1PA-047002 KMB-1PA-047AAAE11061-1337          00000200000000009410000BRLFOB              0000000287400
L4KMB-1PA-047         KMB-1PA-047    KMB-1PA-047002 KMB-1PA-047AAAF12009-1073          00001600000000000670000BRLFOB              0000000058600
L4KMB-1PA-047         KMB-1PA-047    KMB-1PA-047002 KMB-1PA-047AAAG12011-1053          00003200000000000180000BRLFOB              0000000002600
L4KMB-1PA-047         KMB-1PA-047    KMB-1PA-047002 KMB-1PA-047AAAH12048-0111          00000200000000031210000BRLFOB              0000000793000
L4KMB-1PA-047         KMB-1PA-047    KMB-1PA-047002 KMB-1PA-047AAAI12053-0051          00000200000000002350000BRLFOB              0000000064700
L4KMB-1PA-047         KMB-1PA-047    KMB-1PA-047002 KMB-1PA-047AAAJ120CA0610           00000400000000000130000BRLFOB              0000000045100
L4KMB-1PA-047         KMB-1PA-047    KMB-1PA-047002 KMB-1PA-047AAAK130BA0510           00002000000000000080000BRLFOB              0000000031200
L4KMB-1PA-047         KMB-1PA-047    KMB-1PA-047002 KMB-1PA-047AAAL130CA0818           00000400000000000210000BRLFOB              0000000124000
L4KMB-1PA-047         KMB-1PA-047    KMB-1PA-047002 KMB-1PA-047AAAM130CB0620           00000200000000000160000BRLFOB              0000000069000
L4KMB-1PA-047         KMB-1PA-047    KMB-1PA-047002 KMB-1PA-047AAAN130CB0625           00000200000000000140000BRLFOB              0000000076000
L4KMB-1PA-047         KMB-1PA-047    KMB-1PA-047002 KMB-1PA-047AAAO13194-1096          00000200000000021470000BRLFOB              0000000750000
L4KMB-1PA-047         KMB-1PA-047    KMB-1PA-047002 KMB-1PA-047AAAP132BC0618           00000600000000000220000BRLFOB              0000000055400
L4KMB-1PA-047         KMB-1PA-047    KMB-1PA-047002 KMB-1PA-047AAAQ14013-004           00000200000000000150000BRLFOB              0000000027800
L4KMB-1PA-047         KMB-1PA-047    KMB-1PA-047002 KMB-1PA-047AAAR14092-1086          00000200000000000740000BRLFOB              0000000018400
L4KMB-1PA-047         KMB-1PA-047    KMB-1PA-047002 KMB-1PA-047AAAS16007-0741          00001600000000000600000BRLFOB              0000000038500
L4KMB-1PA-047         KMB-1PA-047    KMB-1PA-047002 KMB-1PA-047AAAT16066-0007          00000200000000013230000BRLFOB              0000000992200
L4KMB-1PA-047         KMB-1PA-047    KMB-1PA-047002 KMB-1PA-047AAAU16082-0784          00000200000000220710000BRLFOB              0000005865000
L4KMB-1PA-047         KMB-1PA-047    KMB-1PA-047002 KMB-1PA-047AAAV16126-0705          00000200000000023830000BRLFOB              0000000788000
L4KMB-1PA-047         KMB-1PA-047    KMB-1PA-047002 KMB-1PA-047AAAW16126-0744          00000200000000025620000BRLFOB              0000001285000
L4KMB-1PA-047         KMB-1PA-047    KMB-1PA-047002 KMB-1PA-047AAAX16126-1140          00000400000000001940000BRLFOB              0000000097000
L4KMB-1PA-047         KMB-1PA-047    KMB-1PA-047002 KMB-1PA-047AAAY21171-0751          00000400000000029550000BRLFOB              0000001077000
L4KMB-1PA-047         KMB-1PA-047    KMB-1PA-047002 KMB-1PA-047AAAZ21176-0009          00000200000000007660000BRLFOB              0000000227200
L4KMB-1PA-047         KMB-1PA-047    KMB-1PA-047002 KMB-1PA-047AABA21176-0048          00000200000000006210000BRLFOB              0000000059300
L4KMB-1PA-047         KMB-1PA-047    KMB-1PA-047002 KMB-1PA-047AABB21176-0704          00000200000000022050000BRLFOB              0000000288600
L4KMB-1PA-047         KMB-1PA-047    KMB-1PA-047002 KMB-1PA-047AABC220AB0306           00000200000000000020000BRLFOB              0000000004700
L4KMB-1PA-047         KMB-1PA-047    KMB-1PA-047002 KMB-1PA-047AABD224AB0408           00000800000000000050000BRLFOB              0000000012200
L4KMB-1PA-047         KMB-1PA-047    KMB-1PA-047002 KMB-1PA-047AABE39112-0030          00000200000000007040000BRLFOB              0000000253000
L4KMB-1PA-047         KMB-1PA-047    KMB-1PA-047002 KMB-1PA-047AABF39112-1054          00000200000000005260000BRLFOB              0000000246300
L4KMB-1PA-047         KMB-1PA-047    KMB-1PA-047002 KMB-1PA-047AABG480J1400            00000200000000000070000BRLFOB              0000000005400
L4KMB-1PA-047         KMB-1PA-047    KMB-1PA-047002 KMB-1PA-047AABH482J0200            00000200000000000080000BRLFOB              0000000020000
L4KMB-1PA-047         KMB-1PA-047    KMB-1PA-047002 KMB-1PA-047AABI49054-0001          00000200000000008580000BRLFOB              0000000499600
L4KMB-1PA-047         KMB-1PA-047    KMB-1PA-047002 KMB-1PA-047AABJ49091-0001          00001600000000000200000BRLFOB              0000000010400
L4KMB-1PA-047         KMB-1PA-047    KMB-1PA-047002 KMB-1PA-047AABK49091-0001  KD      00001600000000000210000BRLFOB              0000000010400
L4KMB-1PA-047         KMB-1PA-047    KMB-1PA-047002 KMB-1PA-047AABL51044-0843          00000200000000015610000BRLFOB              0000000320600
L4KMB-1PA-047         KMB-1PA-047    KMB-1PA-047002 KMB-1PA-047AABO550AA2015           00000400000000000030000BRLFOB              0000000003800
L4KMB-1PA-047         KMB-1PA-047    KMB-1PA-047002 KMB-1PA-047AABP550AA4035           00000400000000000130000BRLFOB              0000000035900
L4KMB-1PA-047         KMB-1PA-047    KMB-1PA-047002 KMB-1PA-047AABQ554DA0600           00000400000000000060000BRLFOB              0000000003900
L4KMB-1PA-047         KMB-1PA-047    KMB-1PA-047002 KMB-1PA-047AABR56033-0881          00000200000000000510000BRLFOB              0000000006600
L4KMB-1PA-047         KMB-1PA-047    KMB-1PA-047002 KMB-1PA-047AABS56071-0838          00000200000000000970000BRLFOB              0000000006600
L4KMB-1PA-047         KMB-1PA-047    KMB-1PA-047002 KMB-1PA-047AABT92002-1143          00000600000000000200000BRLFOB              0000000055400
L4KMB-1PA-047         KMB-1PA-047    KMB-1PA-047002 KMB-1PA-047AABU92005-0721          00000200000000001220000BRLFOB              0000000008500
L4KMB-1PA-047         KMB-1PA-047    KMB-1PA-047002 KMB-1PA-047AABV92015-1757          00001600000000000830000BRLFOB              0000000021200
L4KMB-1PA-047         KMB-1PA-047    KMB-1PA-047002 KMB-1PA-047AABW92016-028           00000200000000000880000BRLFOB              0000000226200
L4KMB-1PA-047         KMB-1PA-047    KMB-1PA-047002 KMB-1PA-047AABX92022-1116          00000200000000000450000BRLFOB              0000000122600
L4KMB-1PA-047         KMB-1PA-047    KMB-1PA-047002 KMB-1PA-047AABY92022-1628          00000200000000000230000BRLFOB              0000000010000
L4KMB-1PA-047         KMB-1PA-047    KMB-1PA-047002 KMB-1PA-047AABZ92027-1651          00000800000000000510000BRLFOB              0000000066600
L4KMB-1PA-047         KMB-1PA-047    KMB-1PA-047002 KMB-1PA-047AACA92028-1132          00000200000000000450000BRLFOB              0000000011000
L4KMB-1PA-047         KMB-1PA-047    KMB-1PA-047002 KMB-1PA-047AACB92033-1054          00000800000000000050000BRLFOB              0000000004300
L4KMB-1PA-047         KMB-1PA-047    KMB-1PA-047002 KMB-1PA-047AACC92033-1102          00000400000000000070000BRLFOB              0000000004400
L4KMB-1PA-047         KMB-1PA-047    KMB-1PA-047002 KMB-1PA-047AACD92038-001           00000200000000000270000BRLFOB              0000000011900
L4KMB-1PA-047         KMB-1PA-047    KMB-1PA-047002 KMB-1PA-047AACE92039-0060          00001800000000000410000BRLFOB              0000000006000
L4KMB-1PA-047         KMB-1PA-047    KMB-1PA-047002 KMB-1PA-047AACF92042-030           00000200000000000130000BRLFOB              0000000013300
L4KMB-1PA-047         KMB-1PA-047    KMB-1PA-047002 KMB-1PA-047AACG92043-0904          00000200000000000880000BRLFOB              0000000079600
L4KMB-1PA-047         KMB-1PA-047    KMB-1PA-047002 KMB-1PA-047AACH92043-1263          00000800000000000100000BRLFOB              0000000019600
L4KMB-1PA-047         KMB-1PA-047    KMB-1PA-047002 KMB-1PA-047AACI92043-1264          00000400000000000130000BRLFOB              0000000025600
L4KMB-1PA-047         KMB-1PA-047    KMB-1PA-047002 KMB-1PA-047AACJ92043-1309  1A      00000400000000001320000BRLFOB              0000000020000
L4KMB-1PA-047         KMB-1PA-047    KMB-1PA-047002 KMB-1PA-047AACK92043-4009          00000800000000000260000BRLFOB              0000000033800
L4KMB-1PA-047         KMB-1PA-047    KMB-1PA-047002 KMB-1PA-047AACL92045-1045          00000200000000005090000BRLFOB              0000000588800
L4KMB-1PA-047         KMB-1PA-047    KMB-1PA-047002 KMB-1PA-047AACM92046-1228          00000400000000005010000BRLFOB              0000000370000
L4KMB-1PA-047         KMB-1PA-047    KMB-1PA-047002 KMB-1PA-047AACN92046-1273          00000200000000005430000BRLFOB              0000000339300
L4KMB-1PA-047         KMB-1PA-047    KMB-1PA-047002 KMB-1PA-047AACP92049-1426          00000800000000001240000BRLFOB              0000000070000
L4KMB-1PA-047         KMB-1PA-047    KMB-1PA-047002 KMB-1PA-047AACQ92055-0074          00000400000000000430000BRLFOB              0000000003800
L4KMB-1PA-047         KMB-1PA-047    KMB-1PA-047002 KMB-1PA-047AACR92055-0143          00000800000000000790000BRLFOB              0000000024000
L4KMB-1PA-047         KMB-1PA-047    KMB-1PA-047002 KMB-1PA-047AACS92055-0944          00000400000000000700000BRLFOB              0000000001500
L4KMB-1PA-047         KMB-1PA-047    KMB-1PA-047002 KMB-1PA-047AACT92055-1215          00000400000000000190000BRLFOB              0000000005000
L4KMB-1PA-047         KMB-1PA-047    KMB-1PA-047002 KMB-1PA-047AACU92055-1555          00000200000000000200000BRLFOB              0000000002500
L4KMB-1PA-047         KMB-1PA-047    KMB-1PA-047002 KMB-1PA-047AACV92057-0602          00000200000000017370000BRLFOB              0000002476900
L4KMB-1PA-047         KMB-1PA-047    KMB-1PA-047002 KMB-1PA-047AACW92066-0003          00000200000000001020000BRLFOB              0000000115000
L4KMB-1PA-047         KMB-1PA-047    KMB-1PA-047002 KMB-1PA-047AACX92070-0716          00000400000000004270000BRLFOB              0000000302200
L4KMB-1PA-047         KMB-1PA-047    KMB-1PA-047002 KMB-1PA-047AACY92071-0785          00000200000000000560000BRLFOB              0000000065000
L4KMB-1PA-047         KMB-1PA-047    KMB-1PA-047002 KMB-1PA-047AACZ92075-161           00000400000000000230000BRLFOB              0000000008200
L4KMB-1PA-047         KMB-1PA-047    KMB-1PA-047002 KMB-1PA-047AADA92092-0018          00000400000000002900000BRLFOB              0000000160000
L4KMB-1PA-047         KMB-1PA-047    KMB-1PA-047002 KMB-1PA-047AADB92092-1075          00000400000000002540000BRLFOB              0000000150000
L4KMB-1PA-047         KMB-1PA-047    KMB-1PA-047002 KMB-1PA-047AADC92093-1030          00000200000000000890000BRLFOB              0000000002500
L4KMB-1PA-047         KMB-1PA-047    KMB-1PA-047002 KMB-1PA-047AADD92139-0890          00000400000000001950000BRLFOB              0000000051600
L4KMB-1PA-047         KMB-1PA-047    KMB-1PA-047002 KMB-1PA-047AADE92144-1818          00000200000000002370000BRLFOB              0000000266800
L4KMB-1PA-047         KMB-1PA-047    KMB-1PA-047002 KMB-1PA-047AADF92150-1880          00000200000000000340000BRLFOB              0000000062600
L4KMB-1PA-047         KMB-1PA-047    KMB-1PA-047002 KMB-1PA-047AADG92151-1532          00000200000000000730000BRLFOB              0000000176100
L4KMB-1PA-047         KMB-1PA-047    KMB-1PA-047002 KMB-1PA-047AADH92151-1557          00000800000000001060000BRLFOB              0000000166000
L4KMB-1PA-047         KMB-1PA-047    KMB-1PA-047002 KMB-1PA-047AADI92151-1605          00000400000000000340000BRLFOB              0000000086300
L4KMB-1PA-047         KMB-1PA-047    KMB-1PA-047002 KMB-1PA-047AADJ92151-1654          00001200000000000260000BRLFOB              0000000059500
L4KMB-1PA-047         KMB-1PA-047    KMB-1PA-047002 KMB-1PA-047AADK92151-1829          00000800000000000240000BRLFOB              0000000049000
L4KMB-1PA-047         KMB-1PA-047    KMB-1PA-047002 KMB-1PA-047AADL92151-1930          00003200000000000280000BRLFOB              0000000066800
L4KMB-1PA-047         KMB-1PA-047    KMB-1PA-047002 KMB-1PA-047AADM92152-0286          00000200000000001320000BRLFOB              0000000026200
L4KMB-1PA-047         KMB-1PA-047    KMB-1PA-047002 KMB-1PA-047AADN92152-0547          00000200000000000910000BRLFOB              0000000096700
L4KMB-1PA-047         KMB-1PA-047    KMB-1PA-047002 KMB-1PA-047AADO92152-0679          00000400000000001860000BRLFOB              0000000020000
L4KMB-1PA-047         KMB-1PA-047    KMB-1PA-047002 KMB-1PA-047AADP92152-1074          00000200000000001460000BRLFOB              0000000075000
L4KMB-1PA-047         KMB-1PA-047    KMB-1PA-047002 KMB-1PA-047AADQ92152-1971          00000400000000000880000BRLFOB              0000000054600
L4KMB-1PA-047         KMB-1PA-047    KMB-1PA-047002 KMB-1PA-047AADR92153-0793          00000800000000000920000BRLFOB              0000000153000
L4KMB-1PA-047         KMB-1PA-047    KMB-1PA-047002 KMB-1PA-047AADS92153-0817          00000200000000000280000BRLFOB              0000000044300
L4KMB-1PA-047         KMB-1PA-047    KMB-1PA-047002 KMB-1PA-047AADT92153-1526          00000800000000000290000BRLFOB              0000000062900
L4KMB-1PA-047         KMB-1PA-047    KMB-1PA-047002 KMB-1PA-047AADU92154-0117          00000400000000000360000BRLFOB              0000000067200
L4KMB-1PA-047         KMB-1PA-047    KMB-1PA-047002 KMB-1PA-047AADV92154-0209          00002000000000000210000BRLFOB              0000000033100
L4KMB-1PA-047         KMB-1PA-047    KMB-1PA-047002 KMB-1PA-047AADW92154-0551          00000200000000000210000BRLFOB              0000000060000
L4KMB-1PA-047         KMB-1PA-047    KMB-1PA-047002 KMB-1PA-047AADX92154-0917          00000400000000000220000BRLFOB              0000000028600
L4KMB-1PA-047         KMB-1PA-047    KMB-1PA-047002 KMB-1PA-047AADY92154-0918          00000400000000000320000BRLFOB              0000000069800
L4KMB-1PA-047         KMB-1PA-047    KMB-1PA-047002 KMB-1PA-047AADZ92154-0992          00000400000000000960000BRLFOB              0000000190000
L4KMB-1PA-047         KMB-1PA-047    KMB-1PA-047002 KMB-1PA-047AAEA92154-1009          00000200000000000400000BRLFOB              0000000080000
L4KMB-1PA-047         KMB-1PA-047    KMB-1PA-047002 KMB-1PA-047AAEB92154-1138          00000800000000001570000BRLFOB              0000000165000
L4KMB-1PA-047         KMB-1PA-047    KMB-1PA-047002 KMB-1PA-047AAEC92154-1421          00001200000000000210000BRLFOB              0000000028700
L4KMB-1PA-047         KMB-1PA-047    KMB-1PA-047002 KMB-1PA-047AAED92154-1646          00000400000000001160000BRLFOB              0000000160000
L4KMB-1PA-047         KMB-1PA-047    KMB-1PA-047002 KMB-1PA-047AAEE92154-1693          00000200000000000420000BRLFOB              0000000052400
L4KMB-1PA-047         KMB-1PA-047    KMB-1PA-047002 KMB-1PA-047AAEF92154-1712          00000800000000001080000BRLFOB              0000000157000
L4KMB-1PA-047         KMB-1PA-047    KMB-1PA-047002 KMB-1PA-047AAEG92154-1838          00000200000000001220000BRLFOB              0000000158200
L4KMB-1PA-047         KMB-1PA-047    KMB-1PA-047002 KMB-1PA-047AAEH92154-1858          00000400000000000730000BRLFOB              0000000051100
L4KMB-1PA-047         KMB-1PA-047    KMB-1PA-047002 KMB-1PA-047AAEI92154-1865          00001600000000000620000BRLFOB              0000000147000
L4KMB-1PA-047         KMB-1PA-047    KMB-1PA-047002 KMB-1PA-047AAEJ92154-1889          00001200000000000300000BRLFOB              0000000048500
L4KMB-1PA-047         KMB-1PA-047    KMB-1PA-047002 KMB-1PA-047AAEK92154-1964          00000200000000002580000BRLFOB              0000000461100
L4KMB-1PA-047         KMB-1PA-047    KMB-1PA-047002 KMB-1PA-047AAEL92154-2244          00000200000000000210000BRLFOB              0000000065000
L4KMB-1PA-047         KMB-1PA-047    KMB-1PA-047002 KMB-1PA-047AAEM92154-2302          00000400000000000210000BRLFOB              0000000073000
L4KMB-1PA-047         KMB-1PA-047    KMB-1PA-047002 KMB-1PA-047AAEN92154-3739          00000800000000000640000BRLFOB              0000000093000
L4KMB-1PA-047         KMB-1PA-047    KMB-1PA-047002 KMB-1PA-047AAEO92160-1190          00000200000000000230000BRLFOB              0000000011000
L4KMB-1PA-047         KMB-1PA-047    KMB-1PA-047002 KMB-1PA-047AAEP92161-0356          00000200000000005060000BRLFOB              0000001110800
L4KMB-1PA-047         KMB-1PA-047    KMB-1PA-047002 KMB-1PA-047AAEQ92161-0700          00000200000000014030000BRLFOB              0000002120000
L4KMB-1PA-047         KMB-1PA-047    KMB-1PA-047002 KMB-1PA-047AAER92161-1506          00000200000000001380000BRLFOB              0000000030000
L4KMB-1PA-047         KMB-1PA-047    KMB-1PA-047002 KMB-1PA-047AAES92161-1531          00001920000000000460000BRLFOB              0000000010000
L4KMB-1PA-047         KMB-1PA-047    KMB-1PA-047002 KMB-1PA-047AAET92161-1531          00000080000000000460000BRLFOB              0000000010000
L4KMB-1PA-047         KMB-1PA-047    KMB-1PA-047002 KMB-1PA-047AAEU92161-2102          00000400000000000520000BRLFOB              0000000026200
L4KMB-1PA-047         KMB-1PA-047    KMB-1PA-047002 KMB-1PA-047AAEV92171-0058          00000200000000003260000BRLFOB              0000000245600
L4KMB-1PA-047         KMB-1PA-047    KMB-1PA-047002 KMB-1PA-047AAEW92171-0818          00000200000000000490000BRLFOB              0000000029000
L4KMB-1PA-047         KMB-1PA-047    KMB-1PA-047002 KMB-1PA-047AAEX92171-0939          00000200000000000240000BRLFOB              0000000002700
L4KMB-1PA-047         KMB-1PA-047    KMB-1PA-047002 KMB-1PA-047AAEY92171-2056          00000200000000000360000BRLFOB              0000000040000
L4KMB-1PA-047         KMB-1PA-047    KMB-1PA-047002 KMB-1PA-047AAEZ92172-0262          00000800000000000070000BRLFOB              0000000024000
L4KMB-1PA-047         KMB-1PA-047    KMB-1PA-047002 KMB-1PA-047AAFA92173-0868          00001000000000000550000BRLFOB              0000000018600
L4KMB-1PA-047         KMB-1PA-047    KMB-1PA-047002 KMB-1PA-047AAFB92173-1229          00000200000000001060000BRLFOB              0000000015000
L4KMB-1PA-047         KMB-1PA-047    KMB-1PA-047002 KMB-1PA-047AAFC92173-1242          00000200000000000350000BRLFOB              0000000015000
L4KMB-1PA-047         KMB-1PA-047    KMB-1PA-047002 KMB-1PA-047AAFD92173-1688          00000800000000000960000BRLFOB              0000000146000
L4KMB-1PA-047         KMB-1PA-047    KMB-1PA-047002 KMB-1PA-047AAFE92192-1229          00000200000000007250000BRLFOB              0000000240400
L4KMB-1PA-047         KMB-1PA-047    KMB-1PA-047002 KMB-1PA-047AAFF92192-1806          00000200000000008700000BRLFOB              0000000247800
L4KMB-1PA-047         KMB-1PA-047    KMB-1PA-047002 KMB-1PA-047AAFG92192-1920          00000200000000010860000BRLFOB              0000000162400
L4KMB-1PA-047         KMB-1PA-047    KMB-1PA-047002 KMB-1PA-047AAFH92192-1923          00000200000000004850000BRLFOB              0000000089000
L4KMB-1PA-047         KMB-1PA-047    KMB-1PA-047002 KMB-1PA-047AAFI92200-0157          00001000000000000150000BRLFOB              0000000000500
L4KMB-1PA-047         KMB-1PA-047    KMB-1PA-047002 KMB-1PA-047AAFJ92200-0174          00000200000000000330000BRLFOB              0000000037300
L4KMB-1PA-047         KMB-1PA-047    KMB-1PA-047002 KMB-1PA-047AAFK92200-0363          00001200000000000880000BRLFOB              0000000031300
L4KMB-1PA-047         KMB-1PA-047    KMB-1PA-047002 KMB-1PA-047AAFL92200-0855          00000800000000000450000BRLFOB              0000000055600
L4KMB-1PA-047         KMB-1PA-047    KMB-1PA-047002 KMB-1PA-047AAFM92210-0121          00000200000000000500000BRLFOB              0000000057000
L4KMB-1PA-047         KMB-1PA-047    KMB-1PA-047002 KMB-1PA-047AAFN92210-0498          00000400000000000830000BRLFOB              0000000021300
L4KMB-1PA-047         KMB-1PA-047    KMB-1PA-047002 KMB-1PA-047AAFO92210-0850          00000200000000003350000BRLFOB              0000000351000
L4KMB-1PA-047         KMB-1PA-047    KMB-1PA-047002 KMB-1PA-047AAFP92210-1114          00000800000000000280000BRLFOB              0000000058000
L4KMB-1PA-047         KMB-1PA-047    KMB-1PA-047002 KMB-1PA-047AAFQ92210-1139          00000400000000000690000BRLFOB              0000000086200
L4KMB-1PA-047         KMB-1PA-047    KMB-1PA-047002 KMB-1PA-047AAFR92210-1139          00000400000000000690000BRLFOB              0000000086200
L4KMB-1PA-047         KMB-1PA-047    KMB-1PA-047002 KMB-1PA-047AAFS92210-1139          00000400000000000690000BRLFOB              0000000086200
L4KMB-1PA-047         KMB-1PA-047    KMB-1PA-047002 KMB-1PA-047AAFT92210-1139          00000400000000000690000BRLFOB              0000000086200
L4KMB-1PA-047         KMB-1PA-047    KMB-1PA-047002 KMB-1PA-047AAFU92210-1139          00000400000000000690000BRLFOB              0000000086200
L4KMB-1PA-047         KMB-1PA-047    KMB-1PA-047002 KMB-1PA-047AAFV92210-1139          00000400000000000690000BRLFOB              0000000086200
L4KMB-1PA-047         KMB-1PA-047    KMB-1PA-047002 KMB-1PA-047AAFW92210-1139          00000200000000000690000BRLFOB              0000000086200
L4KMB-1PA-047         KMB-1PA-047    KMB-1PA-047002 KMB-1PA-047AAFX92210-1150          00000200000000001500000BRLFOB              0000000173000
L4KMB-1PA-047         KMB-1PA-047    KMB-1PA-047002 KMB-1PA-047AAFY92210-1352          00000400000000000250000BRLFOB              0000000054200
L4KMB-1PA-047         KMB-1PA-047    KMB-1PA-047002 KMB-1PA-047AAFZ92049-1223          00000400000000001030000BRLFOB              0000000040800
L1KMB-1RE-026         AKA  KMB  2021-04-222021-06-01MOL SUCCESS                   SKMB-104021
L2KMB-1RE-026         KMB-1RE-026    EX400G-J3A1HA       0002600020
L3KMB-1RE-026         KMB-1RE-026    KMB-1RE-026001 OTPU6238450         000000054000560011100045
L4KMB-1RE-026         KMB-1RE-026    KMB-1RE-026001 KMB-1RE-026AAAB11005-0668  3A      00000200000000142660000BRLFOB              0000018910000
L3KMB-1RE-026         KMB-1RE-026    KMB-1RE-026002 OTPU6238450         000000130001110011100080
L4KMB-1RE-026         KMB-1RE-026    KMB-1RE-026002 KMB-1RE-026AAAA11004-0774          00000200000000017410000BRLFOB              0000000524000
L4KMB-1RE-026         KMB-1RE-026    KMB-1RE-026002 KMB-1RE-026AAAC11012-1362          00000200000000000850000BRLFOB              0000000133500
L4KMB-1RE-026         KMB-1RE-026    KMB-1RE-026002 KMB-1RE-026AAAD11056-0238          00000200000000000610000BRLFOB              0000000032900
L4KMB-1RE-026         KMB-1RE-026    KMB-1RE-026002 KMB-1RE-026AAAE11061-1337          00000200000000009410000BRLFOB              0000000287400
L4KMB-1RE-026         KMB-1RE-026    KMB-1RE-026002 KMB-1RE-026AAAF12009-1073          00001600000000000670000BRLFOB              0000000058600
L4KMB-1RE-026         KMB-1RE-026    KMB-1RE-026002 KMB-1RE-026AAAG12011-1053          00003200000000000180000BRLFOB              0000000002600
L4KMB-1RE-026         KMB-1RE-026    KMB-1RE-026002 KMB-1RE-026AAAH12048-0111          00000200000000031210000BRLFOB              0000000793000
L4KMB-1RE-026         KMB-1RE-026    KMB-1RE-026002 KMB-1RE-026AAAI12053-0051          00000200000000002350000BRLFOB              0000000064700
L4KMB-1RE-026         KMB-1RE-026    KMB-1RE-026002 KMB-1RE-026AAAJ120CA0610           00000400000000000130000BRLFOB              0000000045100
L4KMB-1RE-026         KMB-1RE-026    KMB-1RE-026002 KMB-1RE-026AAAK120CC0622           00000400000000000320000BRLFOB              0000000066200
L4KMB-1RE-026         KMB-1RE-026    KMB-1RE-026002 KMB-1RE-026AAAL130CA0818           00000400000000000210000BRLFOB              0000000124000
L4KMB-1RE-026         KMB-1RE-026    KMB-1RE-026002 KMB-1RE-026AAAM130CA1030           00000400000000000460000BRLFOB              0000000260000
L4KMB-1RE-026         KMB-1RE-026    KMB-1RE-026002 KMB-1RE-026AAAN130CB0620           00000200000000000160000BRLFOB              0000000069000
L4KMB-1RE-026         KMB-1RE-026    KMB-1RE-026002 KMB-1RE-026AAAO130CB0625           00000200000000000140000BRLFOB              0000000076000
L4KMB-1RE-026         KMB-1RE-026    KMB-1RE-026002 KMB-1RE-026AAAP13194-1096          00000200000000021470000BRLFOB              0000000750000
L4KMB-1RE-026         KMB-1RE-026    KMB-1RE-026002 KMB-1RE-026AAAQ132BC0618           00000600000000000220000BRLFOB              0000000055400
L4KMB-1RE-026         KMB-1RE-026    KMB-1RE-026002 KMB-1RE-026AAAR14013-004           00000200000000000150000BRLFOB              0000000027800
L4KMB-1RE-026         KMB-1RE-026    KMB-1RE-026002 KMB-1RE-026AAAS14092-0214          00000200000000000790000BRLFOB              0000000038600
L4KMB-1RE-026         KMB-1RE-026    KMB-1RE-026002 KMB-1RE-026AAAT14092-1086          00000200000000000740000BRLFOB              0000000018400
L4KMB-1RE-026         KMB-1RE-026    KMB-1RE-026002 KMB-1RE-026AAAU16007-0741          00001600000000000600000BRLFOB              0000000038500
L4KMB-1RE-026         KMB-1RE-026    KMB-1RE-026002 KMB-1RE-026AAAV16066-0007          00000200000000013230000BRLFOB              0000000992200
L4KMB-1RE-026         KMB-1RE-026    KMB-1RE-026002 KMB-1RE-026AAAW16082-0784          00000200000000220710000BRLFOB              0000005865000
L4KMB-1RE-026         KMB-1RE-026    KMB-1RE-026002 KMB-1RE-026AAAX16126-0705          00000200000000023830000BRLFOB              0000000788000
L4KMB-1RE-026         KMB-1RE-026    KMB-1RE-026002 KMB-1RE-026AAAY16126-0744          00000200000000025620000BRLFOB              0000001285000
L4KMB-1RE-026         KMB-1RE-026    KMB-1RE-026002 KMB-1RE-026AAAZ16126-1140          00000400000000001940000BRLFOB              0000000097000
L4KMB-1RE-026         KMB-1RE-026    KMB-1RE-026002 KMB-1RE-026AABA21171-0751          00000400000000029550000BRLFOB              0000001077000
L4KMB-1RE-026         KMB-1RE-026    KMB-1RE-026002 KMB-1RE-026AABB21176-0009          00000200000000007660000BRLFOB              0000000227200
L4KMB-1RE-026         KMB-1RE-026    KMB-1RE-026002 KMB-1RE-026AABC21176-0048          00000200000000006210000BRLFOB              0000000059300
L4KMB-1RE-026         KMB-1RE-026    KMB-1RE-026002 KMB-1RE-026AABD21176-0704          00000200000000022050000BRLFOB              0000000288600
L4KMB-1RE-026         KMB-1RE-026    KMB-1RE-026002 KMB-1RE-026AABE224AB0408           00000400000000000050000BRLFOB              0000000012200
L4KMB-1RE-026         KMB-1RE-026    KMB-1RE-026002 KMB-1RE-026AABF39112-0030          00000200000000007040000BRLFOB              0000000253000
L4KMB-1RE-026         KMB-1RE-026    KMB-1RE-026002 KMB-1RE-026AABG39112-1054          00000200000000005260000BRLFOB              0000000246300
L4KMB-1RE-026         KMB-1RE-026    KMB-1RE-026002 KMB-1RE-026AABH480J1400            00000200000000000070000BRLFOB              0000000005400
L4KMB-1RE-026         KMB-1RE-026    KMB-1RE-026002 KMB-1RE-026AABI482J0200            00000200000000000080000BRLFOB              0000000020000
L4KMB-1RE-026         KMB-1RE-026    KMB-1RE-026002 KMB-1RE-026AABJ49054-0001          00000200000000008580000BRLFOB              0000000499600
L4KMB-1RE-026         KMB-1RE-026    KMB-1RE-026002 KMB-1RE-026AABK49091-0001  KD      00003200000000000210000BRLFOB              0000000010400
L4KMB-1RE-026         KMB-1RE-026    KMB-1RE-026002 KMB-1RE-026AABL51044-0843          00000200000000015610000BRLFOB              0000000320600
L4KMB-1RE-026         KMB-1RE-026    KMB-1RE-026002 KMB-1RE-026AABM53044-0580          00000400000000001160000BRLFOB              0000000030000
L4KMB-1RE-026         KMB-1RE-026    KMB-1RE-026002 KMB-1RE-026AABP550AA2015           00000400000000000030000BRLFOB              0000000003800
L4KMB-1RE-026         KMB-1RE-026    KMB-1RE-026002 KMB-1RE-026AABQ550AA4035           00000400000000000130000BRLFOB              0000000035900
